:100000000C944A0E0C94720E0C94720E0C94720E98
:100010000C94720E0C94720E0C94720E0C94720E60
:100020000C94720E0C94720E0C94B8120C9427134C
:100030000C94720E0C94720E0C94720E0C94720E40
:100040000C94720E0C94720E0C94720E0C94720E30
:100050000C94720E0C94720E0C94720E0C94591532
:100060000C94720E0C94720E0C94720E0C94720E10
:100070000C94720E0C94720E0C94720E0C94720E00
:100080000C94720E0C94720E0C94720E0C94720EF0
:100090000C94720E0C94720E0C94720E0C94720EE0
:1000A0000C94720E0C94720E0C94720E666565645C
:1000B000696E6720746865206475636B7300627590
:1000C000696C64696E6720612063616D7066697236
:1000D00065006D6F77696E672061206C61776E00D7
:1000E0006265696E67206120666C6967687420616B
:1000F0007474656E64616E740070726163746963B8
:10010000696E67206B617261746500706C617969FA
:100110006E6720736F63636572006275696C6469F2
:100120006E6720612073616E64636173746C650037
:10013000736577696E672061206472657373006C04
:10014000616E64696E6720616E20616972706C61B6
:100150006E6500736577696E67206F6E206120623F
:100160007574746F6E006F72646572696E67206675
:100170006F6F6420617420612072657374617572A1
:10018000616E740064696767696E67206120686FDB
:100190006C650073657474696E67207570206120EA
:1001A00074656E740069726F6E696E67206120738A
:1001B00068697274006861696C696E672061207497
:1001C000617869007069636B696E67206170706C3B
:1001D00065732066726F6D206120747265650066BC
:1001E0006C79696E672061206B6974650066696C63
:1001F0006D696E672061206D6F7669650066696C58
:100200006C696E6720757020612063617220776968
:10021000746820676173007377696D6D696E67201C
:100220007769746820646F6C7068696E73006173BD
:100230006B696E6720666F7220616E206175746FE6
:1002400067726170680077616C6B696E67207468B3
:10025000726F7567682061206861756E74656420CF
:10026000686F7573650073686F7070696E67206181
:100270007420746865206D616C6C0068616E672D18
:10028000676C6964696E67006465636F7261746945
:100290006E6720666F7220612070617274790070E1
:1002A0006C6179696E6720686F7073636F746368DF
:1002B00000706C6179696E672061742061207069DB
:1002C000616E6F207265636974616C00706C617936
:1002D000696E6720636865737300706C6179696E1D
:1002E00067207769746820706C617920646F756726
:1002F0006800726964696E672062756D706572204E
:10030000636172730063757474696E6720736F6DD7
:10031000656F6E652773206861697200766973691D
:1003200074696E6720746865207A6F6F0064616E0F
:1003300063696E6720612062616C6C65740067613F
:1003400074686572696E6720656767732066726F8F
:100350006D20612068656E20686F75736500776138
:100360006C6B696E6720776974682063727574635B
:100370006865730066696E676572207061696E7486
:10038000696E6700726964696E6720696E2061201A
:1003900063686169726C6966740073637562612079
:1003A000646976696E6700726F636B20636C696D58
:1003B00062696E67006D696C6B696E6720612063AE
:1003C0006F7700676F696E67207468726F75676812
:1003D00020616972706F72742073656375726974DD
:1003E0007900686176696E67206120666F6F6420AE
:1003F000666967687400736E6F7720736B69696EE6
:100400006720646F776E20612068696C6C0077618B
:100410007368696E672077696E646F7773206F6E9B
:100420002061206275696C64696E6700626F64792F
:100430002073757266696E67206174207468652028
:1004400062656163680077617368696E6720616ED9
:1004500020656C657068616E7400726964696E67AE
:100460002061206361726F7573656C0062616B69F6
:100470006E6720627265616400666C697070696E97
:10048000672070616E63616B657300636861736997
:100490006E67206120746F726E61646F006D616BB6
:1004A000696E6720612070697A7A61007768616C93
:1004B00065207761746368696E6700676F696E674E
:1004C00020626F776C696E67007761746572696E20
:1004D0006720612067617264656E00706C61796984
:1004E0006E6720666F757220737175617265007436
:1004F0007269636B2D6F722D7472656174696E67BA
:1005000000706C6179696E67206261736562616C0D
:100510006C007761746368696E672061206D6F7627
:10052000696520617420746865207468656174650C
:1005300072007061696E74696E67207468652077F7
:10054000616C6C7320696E206120726F6F6D007337
:10055000756D6F2077726573746C696E6700676F75
:10056000696E67206F6E20616E20416672696361FB
:100570006E2073616661726900736F7274696E6771
:10058000206C61756E64727900726964696E6720AF
:1005900061206D6F746F726379636C650070657252
:1005A000666F726D696E67206174206120726F637F
:1005B0006B20636F6E63657274006F70656E696E39
:1005C000672062697274686461792070726573650E
:1005D0006E74730072616B696E67206C656176651D
:1005E000730064656C69766572696E67206D616918
:1005F0006C00636C696D62696E67204D6F756E7417
:100600002045766572657374006F706572617469F8
:100610006E672061206A61636B68616D6D65720051
:10062000706164646C696E6720696E20612063612B
:100630006E6F65006C6576656C00706572736F6EC9
:10064000616C20627562626C6500696E76697461C6
:1006500074696F6E0062616279206D6F6E69746F8C
:100660007200616476657274697365007374726593
:10067000616D6C696E6500706F7274666F6C696F26
:100680000066697A7A0070656E64756C756D0072CB
:100690006F756E6461626F7574006A6574206C6159
:1006A00067006169736C6500636F6C6C65676500FA
:1006B000617061746879007465656E616765720068
:1006C0006170706C69636174696F6E00636F7264EE
:1006D00075726F7900636F6E766572736174696F9E
:1006E0006E0073686970777265636B00736174651F
:1006F0006C6C69746500726574616C696174650025
:10070000636F6D666F7274207A6F6E65006120632F
:10071000617070656C6C61006265616E7374616CB0
:100720006B00666C6167006578706C6F7265005A6B
:10073000616D626F6E69006572676F6E6F6D696380
:1007400000756E656D706C6F796564007374616EB1
:1007500064696E67206F766174696F6E0063726999
:10076000746963697A6500736872696E6B2072617F
:1007700079006F7267616E697A6500706F6D7000E5
:1007800070726F6372617374696E61746500676122
:100790006D6520706C616E006D696E6520736861B7
:1007A0006674006A6F75726E616C006C6F79616C53
:1007B00074790073616E64626F7800616C70686157
:1007C000626574697A65006D6173636F740061704E
:1007D000706C6573617563650057696C6C20536D4F
:1007E0006974680064C28E6AC2882076750072657A
:1007F000677265740073706163652D74696D65203F
:10080000636F6E74696E75756D006469736D616E8A
:10081000746C650077656564206B696C6C6572004B
:1008200042656574686F76656E004F6C796D7069AE
:10083000616E0073696C686F7565747465007461CE
:1008400063686F6D65746572006372756D620064D4
:10085000C3A96AC3A02076750064656665637400E9
:100860006C6966657374796C65006F696C006E65A0
:10087000676F746961746500677261746974756427
:10088000650065766F6C7574696F6E0070657400D5
:10089000736B69730066697374006E6574005370DE
:1008A0006F636B00666C616D696E676F00686F6E79
:1008B0006B00666F6700726F706500687572740018
:1008C000737461706C6572006C61776E206D6F7708
:1008D00065720050696E6F636368696F00456C767E
:1008E000697320507265736C65790074656E6E690A
:1008F000730063686573730073746966660077617B
:1009000078006A6172007665737400666C6F6F724E
:1009100000746F7263680070697A7A61007370693D
:100920006E6500536865726C6F636B20486F6C6D09
:10093000657300736B756C6C006772696C6C006238
:1009400065616368007772656E6368007065636BEC
:1009500000696E6368776F726D0068616972206408
:100960007279657200736D656C6C007469636B6598
:1009700074006261726B0077696700636173740071
:1009800042616265205275746800776869736B0014
:10099000646565700066756E6E790070656C69637C
:1009A000616E006375666600736861646F770076D8
:1009B0006964656F2063616D657261006B69746560
:1009C00000766F6C63616E6F007370696C6C00739E
:1009D0007461696E007061727479006950616400BD
:1009E0004D69636861656C204A6F7264616E006373
:1009F00068616C6B00636F77626F7900686F736515
:100A00000053757065726D616E0074617869006D78
:100A10006F7573652074726170006E696768746DBC
:100A2000617265006372616D7000626F62736C6504
:100A30006400726566726967657261746F720063E3
:100A40006C6F636B00736B6174650067796D007325
:100A5000706964657220776562006D696E692062F5
:100A60006C696E6473006C756E67006261746872A5
:100A70006F6F6D207363616C65006B6E6F740073D4
:100A800069700077696E646D696C6C006F617200EB
:100A900065726173657200646F67686F7573650076
:100AA00073746F727900687564646C650071756940
:100AB000636B73616E640066756C6C0073616E6469
:100AC0000064656E74697374006F6C640073776F93
:100AD00072646669736800627573696E657373200A
:100AE00074726970006A7567676C650068696C6C20
:100AF000006761730070686F746F6772617068007F
:100B0000617274697374006D61746368006D6972F9
:100B1000726F720077617368696E67206D616368D8
:100B2000696E650062756E00707265736964656EEA
:100B3000740073686565740073756E6275726E001B
:100B4000736F667462616C6C00686F6F6B007261CA
:100B5000696E626F770067696E6765726272656160
:100B600064206D616E006F776C00736F617000625E
:100B7000616E616E61207065656C0077696E6B00F7
:100B80007369740076696F6C696E00626F617400DE
:100B900073636172006D6F6E657900776869737455
:100BA0006C6500726F7365006D6F757365007761BA
:100BB0006C6C65740066697368696E6720706F6C31
:100BC0006500686970006C696F6E00736C616D2000
:100BD00064756E6B0073686F77657200706F636B1E
:100BE00065740066616E67006E657773706170652D
:100BF00072006665746368006E65636B7469650096
:100C0000526F636B7900676F6C66006C616464653A
:100C100072006D6F73717569746F006861697262DB
:100C20007275736800736F636B0077726973740019
:100C300073617700707570706574006A6F67006823
:100C40006F7073636F7463680073706F6F6E0066AC
:100C5000696E00706F676F20737469636B007361F6
:100C600064646C6500776865656C006B657900632A
:100C70007570006772696E006D6F700069726F6EDB
:100C80000065617261636865006E6F640061707019
:100C90006C617573650062656172007469636B6C89
:100CA0006500746970746F65004D69636861656C97
:100CB000204A61636B736F6E00746F70206861749B
:100CC000007069637475726500666964646C6500C0
:100CD000627261696E00736B6972740064696D7031
:100CE0006C6500736B696E00726F636B696E672071
:100CF000636861697200736E616B65007374726121
:100D000077007374616972730073757266626F61E4
:100D1000726400627574746572666C7900686565EA
:100D20006C0074726565006B6E65656C00636F6C5A
:100D300064007061770064696700687567007772A6
:100D40006974650070757273650063686F70007315
:100D50006B617465626F6172640062656C740072CD
:100D600068696E6F6365726F73004672616E6B6562
:100D70006E737465696E00647265737300486172A6
:100D8000727920506F7474657200736869727400B0
:100D90006265640073746F6D61636800646F6720DF
:100DA0006C656173680066616E006C6F6C6C697075
:100DB0006F700065617274687175616B6500676959
:100DC00072616666650063686565726C656164651D
:100DD0007200726F61640077686973706572007287
:100DE00061696E00796F2D796F0070656E67756946
:100DF0006E0077696E646F770062616C64007A6977
:100E00007070657200666C79006C696D626F00735A
:100E100065617368656C6C0073686F76656C006201
:100E20006567007069616E6F006361706500756D64
:100E30006272656C6C610073686F7070696E6720B8
:100E400063617274006C6175676800736E6F7762BE
:100E5000616C6C00736B756E6B007368616D706FA5
:100E60006F006B69737300616C61726D20636C6FEE
:100E7000636B0063656C6C6F0062696379636C65BA
:100E800000666F7265686561640074697373756587
:100E900000746F7900706F707369636C65006361D3
:100EA00067650068756C6120686F6F7000726F6FA6
:100EB0006600636C6177007475736B00736C6964B2
:100EC000650077696E6700537069646572204D61D3
:100ED0006E006272616964007468696E6B00666CB2
:100EE000757465006C6970737469636B00747769FD
:100EF000737400756E69636F726E00626F74746CE8
:100F0000650067756D0074616C6B00626C696E647E
:100F100000737072696E6B6C657200726962006852
:100F20006F74006368657374006661636500626F67
:100F3000777469650070696E6720706F6E67007402
:100F40006565746800776169737400636F6D7075AF
:100F50007465720070616A616D617300776F6C66B1
:100F600000736F6E670070756C6C006E617000735B
:100F70006565736177007369636B0077617463689B
:100F80000063656C6C2070686F6E65007061696EDF
:100F90007400636174006472756D7300636F770031
:100FA000706164646C6500627574746F6E0068656E
:100FB0006164616368650073616C75746500747267
:100FC000756D7065740066696E6765720077726929
:100FD00073740063686169720063616D65726100BA
:100FE0006B69636B0061726D006861740068616EAB
:100FF0006400736E617000676C6173736573007376
:1010000070696465720070726179657200706967F9
:10101000007461696C007761766500747572746C38
:1010200065006261636B0073616C74007363697364
:10103000736F7273006A756D70696E67206A6163A1
:101040006B00626972640068756700746F6E677523
:10105000650062616C6C00626C696E6B00656C624D
:101060006F7700626F6F6B0062726F6F6D00636805
:1010700069636B656E00656C657068616E740068AD
:1010800065616400626C616E6B65740070696E63AB
:10109000680062616C6C6F6F6E0072696E670072DF
:1010A0006F626F74006E6F736500746F65006B6EB6
:1010B00065650073746F7000736861726B006361C3
:1010C000720062696700706F696E7400686F707398
:1010D000636F746368006A756D700073686F650094
:1010E0006D6F73717569746F00636972636C65000D
:1010F0006D6F6E6B657900736B697000666F6F74EE
:1011000062616C6C00616C6C696761746F7200661F
:10111000726F776E0074656C6570686F6E650062E3
:10112000756E6E790064616E636500636C6170005A
:101130007961776E00627265616B666173740068D5
:1011400061707079006265640070616E7473006232
:10115000616279006472617700736C656570006527
:1011600061740063757400646F6700656172006A82
:10117000756D7020726F7065006D6F7574680070AA
:10118000696C6C6F770065796500646F6C6C0062E8
:1011900069746500646F6F720072756E00736D69BB
:1011A0006C650069636520637265616D20636F6EB5
:1011B00065006C616464657200616972706C616E77
:1011C0006500736E65657A650066656574006861C3
:1011D0006972006368696E00636865656B006469C5
:1011E0006E6E657200736164006261736B65746238
:1011F000616C6C006B616E6761726F6F0077616C20
:101200006B006472696E6B0073746F6D700073684D
:101210006F756C646572006261636B7061636B0013
:10122000746F6F746862727573680062617365626F
:10123000616C6C006C69700000000000003E5B4F48
:101240005B3E3E6B4F6B3E1C3E7C3E1C183C7E3C26
:10125000181C577D571C1C5E7F5E1C00183C180034
:10126000FFE7C3E7FF0018241800FFE7DBE7FF30C4
:10127000483A060E2629792926407F050507407F32
:1012800005253F5A3CE73C5A7F3E1C1C08081C1CA5
:101290003E7F14227F22145F5F005F5F06097F019B
:1012A0007F006689956A606060606094A2FFA29486
:1012B00008047E040810207E201008082A1C080854
:1012C0001C2A08081E101010100C1E0C1E0C3038A2
:1012D0003E3830060E3E0E06000000000000005FA3
:1012E00000000007000700147F147F14242A7F2ABF
:1012F0001223130864623649562050000807030081
:10130000001C2241000041221C002A1C7F1C2A08CC
:10131000083E08080080703000080808080800002F
:1013200060600020100804023E5149453E00427FA3
:10133000400072494949462141494D331814127FF2
:101340001027454545393C4A494931412111090792
:101350003649494936464949291E00001400000013
:1013600040340000000814224114141414140041E5
:1013700022140802015909063E415D594E7C1211A2
:10138000127C7F494949363E414141227F414141DA
:101390003E7F494949417F090909013E4141517355
:1013A0007F0808087F00417F41002040413F017FC6
:1013B000081422417F404040407F021C027F7F048E
:1013C00008107F3E4141413E7F090909063E4151D7
:1013D000215E7F09192946264949493203017F01C7
:1013E000033F4040403F1F2040201F3F4038403FC8
:1013F000631408146303047804036159494D4300DE
:101400007F4141410204081020004141417F040214
:1014100001020440404040400003070800205454AB
:1014200078407F2844443838444444283844442889
:101430007F385454541800087E090218A4A49C78DC
:101440007F0804047800447D40002040403D007F38
:101450001028440000417F40007C047804787C0818
:101460000404783844444438FC18242418182424EC
:1014700018FC7C08040408485454542404043F44D1
:10148000243C4040207C1C2040201C3C4030403C00
:1014900044281028444C9090907C4464544C440060
:1014A00008364100000077000000413608000201C4
:1014B0000204023C2623263C1EA1A161123A4040B0
:1014C000207A38545455592155557941215454782E
:1014D00041215554784020545579400C1E527212C7
:1014E000395555555939545454593955545458004F
:1014F00000457C410002457D420001457C40F029C9
:101500002429F0F0282528F07C5455450020545417
:101510007C547C0A097F493249494932324848485B
:1015200032324A4848303A4141217A3A42402078A2
:10153000009DA0A07D39444444393D4040403D3C9D
:1015400024FF2424487E4943662B2FFC2F2BFF09C0
:1015500029F620C0887E09032054547941000044B4
:101560007D413048484A32384040227A007A0A0A9F
:10157000727D0D19317D2629292F28262929292612
:1015800030484D4020380808080808080808382F57
:1015900010C8ACBA2F102834FA00007B00000814E1
:1015A0002A142222142A14089500220095AA005514
:1015B00000AAAA55AA55AA000000FF00101010FFAB
:1015C00000141414FF001010FF00FF1010F010F0B2
:1015D000141414FC001414F700FF0000FF00FF14A3
:1015E00014F404FC141417101F10101F101F1414EF
:1015F000141F00101010F0000000001F1010101039
:101600001F10101010F010000000FF10101010102C
:1016100010101010FF10000000FF140000FF00FF6A
:1016200000001F10170000FC04F414141710171406
:1016300014F404F40000FF00F71414141414141428
:10164000F700F7141414171410101F101F1414149B
:10165000F4141010F010F000001F101F0000001F05
:1016600014000000FC140000F010F01010FF10FF38
:10167000141414FF141010101F00000000F010FFCD
:10168000FFFFFFFFF0F0F0F0F0FFFFFF00000000B1
:1016900000FFFF0F0F0F0F0F38444438447C2A2AF5
:1016A0003E147E02020606027E027E026355494116
:1016B000633844443C04407E201E2006027E020221
:1016C00099A5E7A5991C2A492A1C4C7201724C3035
:1016D0004A4D4D303048784830BC625A463D3E490C
:1016E0004949007E0101017E2A2A2A2A2A44445FB0
:1016F000444440514A444040444A51400000FF01A4
:1017000003E080FF000008086B6B083612362436B1
:10171000060F090F06000018180000001010003016
:1017200040FF0101001F01011E00191D1712003C9E
:101730003C3C3C0000000000F0F89C8E8783878EC4
:101740009CF8F00000FEFF0303030303070EFCF800
:101750000000FEFF0303030303070EFCF80000FF75
:10176000FF00000000000000FFFF0000FEFF838379
:10177000838383C7EE7C380000F8FC0E0703030365
:10178000070EFCF800003F7FE0C08080C0E07F3F94
:10179000FFFF01010101010101FFFF0000FFFF0C3C
:1017A0000C0C0C1C3E77E3C100007FFFC0C0C0C022
:1017B000C0E0703F1F00001F3F70E0C0C0C0E0707D
:1017C0003F1F00007FFFC1C1C1C1C1E3773E1C00C4
:1017D000001F3F70E0C0C0C0E0703F1F000000006D
:1017E0000001FFFF01000000D5F08D14A1C881CFDA
:1017F000D9F1AF20005072657373204120746F20BF
:10180000526573746172740053636F72653A20009D
:1018100047616D65204F7665720053636F72653A5C
:10182000200020060906F205E205D405BA059D054B
:10183000890579055E054F05320512050105EF049E
:10184000DB04C904BB04AC049D048B0479046C0460
:101850005A0446042C040E04F603E203C303B50342
:10186000A7039A03840374035E033E032D031C0342
:101870000503F202DA02CC02B1029F0288027B0267
:10188000660246022E021702FD01ED01DF01C401CE
:10189000B501A50193018401660153013F013001A7
:1018A0001A010B01F900E000D200BE00AC00820872
:1018B00078086E086A08600859084F0849083E0809
:1018C00033082A08200814080A08F507EE07E40779
:1018D000D907CE07C707BB07B307AB07A30798070E
:1018E0008E0780077B07720767075D074C07410774
:1018F00037072F072707220718070D070007F606E7
:10190000EC06E206D506CC06C006B706B006A80669
:10191000A2069A068F068606810677066C06620680
:1019200055064A063A063406660B560B4E0B490B13
:10193000400B380B320B280B240B140B0D0B070B31
:10194000000BF50AF10AEC0AE50AD70ACD0AC90A22
:10195000C10ABC0AB70AAD0AA60AA00A970A900AE9
:101960008C0A830A7F0A7A0A6B0A660A5A0A4F0AA5
:101970004B0A450A3F0A320A2A0A240A1A0A0F0A9F
:101980000A0A010AFC09F509EF09E009DB09D50992
:10199000CF09C909C109BC09AF09A809A3099B0955
:1019A000950990098A0980097B09770972096B09F1
:1019B00065095A0951094C0945093F093909330993
:1019C00023091D09170911090B0906090209FE0857
:1019D000F808F208EB08DD08D308C808C008BB08FF
:1019E000B608B208AD08A4089E089A0895089008A1
:1019F0008C08BE0FB70FAE0FA70FA00F9C0F960F4E
:101A0000920F8C0F810F7B0F760F6F0F6B0F660F8E
:101A1000610F5C0F540F4B0F450F3F0F350F2E0F0B
:101A2000290F230F1F0F1B0F110F0B0F060F020F94
:101A3000FB0EF30EED0EE40EDE0ED80ED20EC70E28
:101A4000C20EBC0EB70EB20EAD0EA30E9E0E950EBC
:101A5000910E8A0E810E790E730E670E620E5A0E6B
:101A6000540E4B0E450E370E2E0E290E230E1F0E52
:101A7000180E0F0E090E050EFE0DF90DF20DEA0DF2
:101A8000E40DDF0DD70DD20DC60DBE0DB30DAA0DA1
:101A9000A60D9C0D940D900D8A0D7D0D770D6A0D90
:101AA0005F0D5A0D4F0D4A0D440D3E0D3A0D360D8A
:101AB000320D2D0D270D220D1D0D130D090D020DDB
:101AC000FC0CF60CE80CE30CDC0CD60CD00CC90CAE
:101AD000C10CB90CA90CA20C9B0C960C8D0C890C9A
:101AE000810C7C0C780C730C6F0C6B0C650C5E0C11
:101AF000530C4F0C490C3F0C3B0C340C300C2A0C93
:101B0000250C1B0C120C0B0C060C000CF80BF20B2A
:101B1000E80BE30BDC0BD50BCB0BC60BC20BB50BE9
:101B2000AE0BA80BA30B9B0B950B900B8B0B840B95
:101B3000800B7B0B6F0B6A0B34122B1220121712C7
:101B40000E1208120212FD11F411E911E511DE1155
:101B5000D811D311CE11C911C211B911B211A311EB
:101B60009D11991194118F118A1186117F1179118C
:101B70006F116B11671163115F11591154114F11DE
:101B8000491145113F11351130112B1125111F112C
:101B900015110F110511FC10F710F010E910E010ED
:101BA000DB10D610CC10C610C210BE10B810B31087
:101BB000AE10AA10A5109F109A1092108C108410CD
:101BC0007F1076106E10681063105D105710521061
:101BD0004B104710421035102C10271022101B10EC
:101BE000161011100D100610FF0FF70FF20FED0F6A
:101BF000E90FE50FE00FD90FD30FCD0FC60F3E0051
:101C000054696D65723A20003E005475726E733AE5
:101C100020003E200048656164732D5570204368A4
:101C2000617261646500080B000202020000090491
:101C3000000001020200000524001001052401013A
:101C40000104240206052406000107058103100093
:101C50004009040100020A000000070502024000DA
:101C6000000705830240000004030904120100027A
:101C7000EF0201404123368000010102030141725D
:101C80006475696E6F204C4C430041726475626FDD
:101C90007900D61511241FBECFEFDAE0DEBFCDBF2D
:101CA00011E0A0E0B1E0ECE3FBE302C005900D928F
:101CB000AC38B107D9F727E0ACE8B1E001C01D921C
:101CC000A536B207E1F71EE0CAE4DEE004C02197C2
:101CD000FE010E94961DC934D107C9F70E94F31571
:101CE0000C949C1D0C94000080E0EFE0F3E0811167
:101CF0008FEF002481938193819381930394D1F793
:101D00000895EFE0F3E0A0E0B8E000800EBC8111A0
:101D1000012C1197A0FDFDCF0192B9F70DB40895E4
:101D2000FC0180910E03882311F13FB7F89482E003
:101D30008093E9002091F200822F90E01816190696
:101D400014F481E090E0882339F0289844E6409329
:101D50000D034091F1004083222339F02091F200DD
:101D6000211103C02BE62093E8003FBF08958FEFB9
:101D70009FEF08952FB7F89483E08093E900909146
:101D8000E800892F807295FF04C09091F20080E4F2
:101D9000891B2FBF08958091050381110DC082E03A
:101DA0008093010384E08093020310920403109255
:101DB000030381E08093050381E093E00895CF93CE
:101DC000DF931F92CDB7DEB76983DC01ED91FC9103
:101DD0000280F381E02D41E050E0BE016F5F7F4F54
:101DE00009950F90DF91CF91089583E08093E900EA
:101DF0008091F200882319F08AE38093E800089527
:101E00000E94BA0E90E00895CF93DF931F92CDB752
:101E1000DEB7FC018485958597FD08C02FEF3FEF65
:101E2000358724870F90DF91CF910895CE010196D9
:101E30000E94900E019719F4898190E0F3CF8FEF03
:101E40009FEFF0CF0F931F93CF93DF931F92CDB7E8
:101E5000DEB78C01FC018485958597FF0BC0CE0110
:101E600001960E94900E019771F4898190E0F8012B
:101E700095878487F801848595850F90DF91CF91B0
:101E80001F910F9108958FEF9FEFF1CFFC01848593
:101E9000958597FD0BC09FB7F89482E08093E90089
:101EA0008091F2009FBF90E0019608959FB7F8944B
:101EB00082E08093E9008091F2009FBF90E0089556
:101EC0004091FB025091FC022091F9023091FA02FC
:101ED00042175307B4F49091E8009570E1F39091A4
:101EE000E80092FD19C08093F1008091FB0290916F
:101EF000FC0201968F739927892B19F48EEF80933A
:101F0000E8008091FB029091FC0201969093FC0204
:101F10008093FB0281E0089580E00895DF92EF92C4
:101F2000FF920F931F93CF93DF93D82E8A01EB017B
:101F30007B01E40EF51ECE15DF0559F0D7FE12C069
:101F4000FE0184910E94600F21968111F4CF0FEF62
:101F50001FEFC801DF91CF911F910F91FF90EF907C
:101F6000DF9008958881EECF0F931F93CF93DF9377
:101F70001F92CDB7DEB782E0898342E450E066E28B
:101F80007CE180E80E948E0F0E94CB0EDC0112964D
:101F90000D911C910115110589F0D801ED91FC916D
:101FA0000280F381E02DBE016F5F7F4FC80109956C
:101FB00097FD04C0F80100851185ECCF89810F9051
:101FC000DF91CF911F910F910895615030F02091D2
:101FD000F100FC0120830196F8CF289884E68093D5
:101FE0000D0308953FB7F8948091F5029091F602A1
:101FF000A091F702B091F80226B5A89B05C02F3F2B
:1020000019F00196A11DB11D3FBFBA2FA92F982F1E
:102010008827BC01CD01620F711D811D911D42E019
:10202000660F771F881F991F4A95D1F708958F92E1
:102030009F92AF92BF92CF92DF92EF92FF926B018D
:102040007C010E94F20F4B015C01C114D104E10438
:10205000F104B9F00E94F20F681979098A099B0905
:10206000683E73408105910580F321E0C21AD108D2
:10207000E108F10888EE880E83E0981EA11CB11CCF
:10208000E4CFFF90EF90DF90CF90BF90AF909F9004
:102090008F9008958F929F92AF92BF92CF92DF92CE
:1020A000EF92FF920F931F93CF93DF936C017B010D
:1020B0008A0180911201882309F45CC080910E038B
:1020C000882309F457C08091000380FF05C08091E8
:1020D000E00082608093E000E801B12C8AEFA82E36
:1020E00093E0892E2AE3922E209711F4BB20D9F198
:1020F0000E94BA0E81110AC0AA94AA20D9F161E007
:1021000070E080E090E00E941710EECF8C171D0663
:1021100011F00CF08C2F9FB7F8948092E900209179
:10212000E80025FD02C09FBFDFCF282F30E0C21B93
:10213000D30BF701815020F041914093F100FACF89
:10214000E20EF31EBB2021F09092E800B12CEBCF01
:102150008091E80085FDE7CF9092E800BB24B3941E
:10216000209709F3F3CF5D9884E68093FF02101661
:1021700011063CF081E090E0F6019383828310E049
:1021800000E0C801DF91CF911F910F91FF90EF9078
:10219000DF90CF90BF90AF909F908F900895AF92B7
:1021A000BF92CF92DF92EF92FF920F931F93CF9344
:1021B000DF936C017B018B01040F151FEB015E01A6
:1021C000AE18BF08C017D10759F06991D601ED913B
:1021D000FC910190F081E02DC6010995892B79F7DA
:1021E000C501DF91CF911F910F91FF90EF90DF908C
:1021F000CF90BF90AF9008952D9A0895BC0190E0C4
:1022000080E00C9417108FB18095807F669B88606A
:102210001C9B846008952F923F924F925F926F9221
:102220007F928F929F92AF92BF92CF92DF92EF9266
:10223000FF920F931F93CF93DF9300D000D0CDB7C1
:10224000DEB76D30C9F020900101C090EA02D09055
:10225000EB02822D90E06A3041F51092E902109273
:10226000E80243E0880F991F4A95E1F7C80ED91E8E
:10227000D092EB02C092EA0281E090E00F900F90C2
:102280000F900F90DF91CF911F910F91FF90EF90E2
:10229000DF90CF90BF90AF909F908F907F906F9086
:1022A0005F904F903F902F900895409002012091B1
:1022B000E8023091E9023C832B8335E0639FF00113
:1022C0001124E85CFD4E0B811C8140E030E1632E5F
:1022D000912C453029F09F012F5F3F4F9490F901D9
:1022E000560128E0522E90FC05C0442009F438C065
:1022F00020E001C0242D2170822EB801362E262F19
:10230000201B221568F5F12CE12CE21430F5603821
:102310007105E0F495012E0D3F1D20343105B0F418
:1023200051E021FD54E020FD550F22FD5295287FFC
:10233000629ED0011124A30D752EBA83A983A15FDB
:10234000BC4F2C91882031F0722A7C92AFEFEA1AB0
:10235000FA0ADBCF70947222F8CF6F5F7F4FCECF37
:1023600096945A94A80EB91E5110BDCF4F5F080F16
:10237000191F463009F0ACCF2B813C81249E200DE3
:10238000311D11243093E9022093E80275CF0F9399
:102390001F93CF93DF938C01D0E0C0E0F801EC0FE6
:1023A000FD1F6491662341F08FE597E00E940B11B9
:1023B000892B11F02196F2CFCE01DF91CF911F91A1
:1023C0000F9108959091EC02982329F49091ED02D9
:1023D000982381E009F480E0089580E00C94810E58
:1023E000809194019091950101979093950180932C
:1023F0009401181619063CF082E090E09093EF02E9
:102400008093EE0208958091980190919901019630
:102410006091E0027091E1020E946E1D909399011B
:10242000809398012FB7F8948091F1029091F20275
:10243000A091F302B091F4022FBF8093900190938A
:102440009101A0939201B09393010895089590E0B3
:1024500080E008958F929F92AF92BF920F931F9347
:10246000CF93DF93CDB7DEB7A1970FB6F894DEBF59
:102470000FBECDBF19A2423008F44AE08E010F5DB5
:102480001F4F842E912CB12CA12CA50194010E94E8
:102490003D1DE62FB901CA01EA3044F5E05DD801DF
:1024A000EE938D01232B242B252B79F790E080E0F0
:1024B000109769F0FD0101900020E9F73197AF0115
:1024C0004A1B5B0BBD018FE597E00E94CF10A196E0
:1024D0000FB6F894DEBF0FBECDBFDF91CF911F9135
:1024E0000F91BF90AF909F908F900895E95CD7CFE8
:1024F000009769F0FC0101900020E9F73197AF01E6
:10250000481B590BBC018FE597E00C94CF1090E06D
:1025100080E00895CF92DF92EF92FF92CF93DF9306
:1025200097FF1BC06B017C016DE28FE597E00E9475
:102530000B11EC0166277727CB016C197D098E09F9
:102540009F094AE00E942A128C0F9D1FDF91CF91B4
:10255000FF90EF90DF90CF9008954AE0DF91CF9108
:10256000FF90EF90DF90CF900C942A120C94F51C02
:102570001F920F920FB60F9211248F939F93809109
:10258000E1009091E100937F9093E10083FF0FC001
:102590001092E90091E09093EB001092EC0092E32E
:1025A0009093ED0010920E0398E09093F00082FF5C
:1025B00022C093E09093E9009091F200992319F0E2
:1025C0009AE39093E8009091FF02992341F0909153
:1025D000FF0291509093FF02911101C05D9A90917A
:1025E0000D03992341F090910D03915090930D03A9
:1025F000911101C0289A84FF18C08091E2008E7E5C
:1026000081608093E2008091E1008F7E8093E10001
:10261000809100038E7E8061809300039F918F9153
:102620000F900FBE0F901F90189580FFF7CF8091ED
:10263000E2008E7E80618093E2008091E1008E7ED8
:102640008093E100809100038E7E8160E5CF1F9230
:102650000F920FB60F921124CF92DF92EF92FF925A
:102660000F931F932F933F934F935F936F937F939A
:102670008F939F93AF93BF93EF93FF93CF93DF938A
:10268000CDB7DEB76C97DEBFCDBF1092E900809169
:10269000E80083FF25C068E0CE0145960E94E50F63
:1026A00082EF8093E8008D8987FF39C09091E80020
:1026B00090FFFCCF982F907609F034C19E894F8906
:1026C000588D2F89F88C911131C0803861F5809137
:1026D000FE028093F1001092F1008EEF8093E800EB
:1026E0006C960FB6F894DEBF0FBECDBFDF91CF91D1
:1026F000FF91EF91BF91AF919F918F917F916F91DA
:102700005F914F913F912F911F910F91FF90EF900B
:10271000DF90CF900F900FBE0F901F9018959EEFF7
:102720009093E800C7CF1092F100D5CF913059F4C3
:102730008111D3CF4130510581F68091FE028D7F0A
:102740008093FE02CACF933049F48111C6CF413045
:10275000510519F68091FE028260F2CF953041F466
:102760008091E80080FFFCCF20682093E300B5CF84
:10277000963009F0A9C00B8D1C8D22E01092E90063
:102780001092FC021092FB02F2122EC01092FA027A
:102790001092F9020E94B40F1F8299E09983FA8285
:1027A00091E09E8390EA98879AEF99872091FB02A7
:1027B0003091FC02275F3F4F3C832B838D83109227
:1027C000E9001092FC021092FB021093FA020093AF
:1027D000F90249E050E0BE016F5F7F4F80E00E9448
:1027E0008E0F0E94B40F79CF1093FA020093F90272
:1027F0000E94CB0EDC0112960D911C910115110562
:1028000009F451C1D801ED91FC910480F581E02DCE
:10281000BE016B5E7F4FC8010995009709F03EC16C
:10282000F80100851185EACFF3E0FF120EC08F8911
:10283000882309F440C0823061F440E867E08AE808
:102840009CE10E94A315811148CF81E28093EB00A7
:1028500047CF813029F440E86BE08EE79CE1F1CF6F
:10286000833099F70E94CB0EDC011296ED90FC901C
:102870008E010F5F1F4F6801E114F10479F0D70159
:10288000ED91FC910680F781E02DB801C701099513
:10289000080F111DF701E084F184EECFD8011C92DE
:1028A000F60101900020E9F73197BF016C197D090D
:1028B00040E0C601C6CF68E67CE1FB01449150E0F0
:1028C00080E80E948E0F09CF973009F4BECF983070
:1028D00021F481E08093F10000CF993009F0FDCE22
:1028E000837009F0B2CFE2E4F1E081E031E096E3F9
:1028F0002191222371F08093E9003093EB00DF01F6
:1029000011972C912093EC009093ED008F5F87300E
:1029100079F78EE78093EA001092EA008F8980931E
:102920000E03DBCE8B8D9C8D1092E9001092FC0281
:102930001092FB029093FA028093F902898D811123
:1029400092C08E899D89913A49F4813209F07DCFF8
:1029500047E050E06BE071E080E0B3CF913209F0E6
:1029600074CF833269F48F89988DB0E0A0E08093B2
:10297000070190930801A0930901B0930A01ADCE1D
:10298000803269F48091E80082FFFCCF67E08BE041
:1029900091E00E94E50F8BEF8093E8009ECE82329B
:1029A00009F09BCE8F8980931201EEEFFFE78591AE
:1029B00094918B3F9C4D51F1E0E0F8E080910B0148
:1029C00090910C01A0910D01B0910E01803B9440BB
:1029D000A105B105F1F48091120180FD1AC0EE3F0E
:1029E0008AE0F80789F587E797E7918380838091EC
:1029F00060008093FD0288E19BE00FB6F894A895F3
:102A0000809360000FBE9093600067CEEEEFFAE017
:102A1000D5CF808191818737974709F05ECEA89501
:102A2000809160008861809360008091FD028093B6
:102A30006000EE3F2AE0F20789F08091FE0A909153
:102A4000FF0A9183808349CE8081918187379807DF
:102A500051F29093FF0A8093FE0AC5CF1092FF0AAD
:102A60001092FE0A3ACE0E94CB0EDC0112960D9116
:102A70001C910115110509F4E8CED801ED91FC91E6
:102A80000190F081E02DBE016B5E7F4FC80109957A
:102A9000811123CEF80100851185EBCF1816190698
:102AA0000CF41BCED2CEF1E0FF12BECE6CE67CE180
:102AB00004CF1F920F920FB60F9211242F933F93C2
:102AC0008F939F93AF93BF938091F1029091F20205
:102AD000A091F302B091F4023091F00223E0230FB1
:102AE0002D3758F50196A11DB11D2093F00280935A
:102AF000F1029093F202A093F302B093F40280915A
:102B0000F5029091F602A091F702B091F8020196B9
:102B1000A11DB11D8093F5029093F602A093F702D8
:102B2000B093F802BF91AF919F918F913F912F91F8
:102B30000F900FBE0F901F90189526E8230F029656
:102B4000A11DB11DD2CFEF92FF920F931F93CF9390
:102B5000DF93F82E192FE62E042F81E0860F880FC1
:102B60000E94600F83E00E94600FCF2DD12FEC0EEA
:102B7000FD2EF11CCE15DF05B9F007FF13C0FE01D5
:102B800084910E94600F182F80E00E94600F8123C3
:102B900021968111EFCFDF91CF911F910F91FF907F
:102BA000EF9008958881EDCF81E0F5CFEFE0F7E079
:102BB0001382128288EE93E0A0E0B0E084839583D4
:102BC000A683B7838CE491E0918380838FEF9FEF9E
:102BD00095878487EFE5F7E0138212828EE591E016
:102BE000918380830895CF93DF93CDB7DEB7E297CB
:102BF0000FB6F894DEBF0FBECDBF789484B5826067
:102C000084BD84B5816084BD85B5826085BD85B590
:102C1000816085BD80916E00816080936E0010920E
:102C20008100809181008260809381008091810089
:102C3000816080938100809180008160809380001A
:102C400080919100826080939100809191008160D9
:102C5000809391008091900081608093900080919A
:102C6000C10084608093C1008091C1008260809324
:102C7000C1008091C10081608093C1008091C30038
:102C800081608093C3008091C00082608093C00007
:102C90008091C20081608093C20080917A0084603C
:102CA00080937A0080917A00826080937A0080918C
:102CB0007A00816080937A0080917A0080688093A6
:102CC0007A0010920E031092FE021092000380917F
:102CD000D70081608093D70080EA8093D80089B5BF
:102CE000806189BD89B5826089BD09B400FEFDCFD0
:102CF00061E070E080E090E00E9417108091D800C1
:102D00008F7C80618093D8008091E000807F8093E9
:102D1000E0008091E1008E7E8093E1008DE0809361
:102D2000E200559A209A81EC80937C0085B1806FF7
:102D300085B984B1877E84B984B1876E84B95E9A7F
:102D40005F988AB1806D8AB9769A6E9881B3806FE8
:102D500081BB899880B38D7080BB80E58CBD81E09C
:102D60008DBD85E090E00E94FE105F9A85E090E0C6
:102D70000E94FE105E985C98E8EEF7E185EF97E11F
:102D800024912EBD00000DB407FEFDCF31968E17A5
:102D90009F07B1F75C9A81E8809364008091650099
:102DA0008160809365000E94ED110E94031187FFEE
:102DB00015C05C9885EA8EBD00000DB407FEFDCFFE
:102DC0005C9A2E982F982D98809164008062809351
:102DD000640081E083BF889513BEFCCF0E9403117D
:102DE00082FF48C02D980E94031184788438E1F452
:102DF0000E94FC1088EC90E00E94FE102F9882E068
:102E000090E00E94F51C8F3F29F06FEF82E090E088
:102E10000E94FD1C84EF91E00E94FE102F9A0E94F8
:102E2000031184788438D9F30E94031184718431AA
:102E3000E1F40E94FC1088EC90E00E94FE102E98B5
:102E400082E090E00E94F51C882329F060E082E097
:102E500090E00E94FD1C84EF91E00E94FE102E9AEB
:102E60000E94031184718431D9F388EC90E00E94B0
:102E7000FE10B4CF0E94FC1082E090E00E94B612D7
:102E8000882309F486C03E9A3F9A81E090E00E9430
:102E9000B612082F0470702E81FF11C001112E98F8
:102EA00001EF1FEF68E0E62EF12C78E5672E0E9417
:102EB000031186FF71C02E9A2F9A0E94FC1082E3A4
:102EC00090E00E94FE100E9403118111F8CF80E172
:102ED000809300010E94740E1092EB021092EA029D
:102EE0001092E9021092E802809164008E7F809334
:102EF000640080917A00806480937A0080917A00E7
:102F000086FDFCCF00917800109179000E94F20FAD
:102F1000AB01BC01C801B0E0A0E0DC019927882723
:102F20008C019D01040F151F261F371FC901B80111
:102F30002091640021602093640061157105810572
:102F4000910511F00E94B91C08EE202E03E0302EEE
:102F5000412C512C8AE0E82EF12C96E4692E712C3C
:102F60008FB7F8944091F1025091F2026091F30210
:102F70007091F4028FBF80918E01882309F4CFC035
:102F800010928E0180E090E0892B51F30E940000A6
:102F9000E7CF3E983F9879CF772029F0043011058C
:102FA00011F42E9A2F9881E00E94810E980117FF4C
:102FB00004C022273327201B310B27703327C80179
:102FC00017FD079653E0959587955A95E1F717FFFA
:102FD00005C00197A701421B530B9A01BC017695CE
:102FE000762F662777956795615F7C4FB0E0A0E00C
:102FF0002701421A530A8E3F5FEF950709F43FC03D
:103000006A9E50016B9EB00C112450E040E0F50127
:10301000E85CF84E5F014B01F0E88F0E911C8F3F8A
:10302000980791F0F501E40FF51FE4916B01C40ED0
:10303000D51EF0E01F01022E01C0220C0A94EAF70F
:10304000F60134882328248A2115310599F0F501E9
:10305000E40FF51FE4916401C40ED51EF0E01F01DA
:10306000042C02C0359427940A94E2F7F6013488C0
:103070002328248A4F5F5F4F4835510581F601961A
:1030800060587F4F119709F047C00E94ED118FE003
:1030900090E00E94FE100F5F1F4F0931110509F0EB
:1030A00006CF772011F02F9A2D9880E991E00E94A9
:1030B000FE100E94FC1081E090E00E94B61280FF9A
:1030C000FECE8AE090E00E94B6129FEF980F9E3FDE
:1030D00008F0F5CE22E330E03093E9022093E802D5
:1030E00028E330E03093EB022093EA020BE010E09B
:1030F000682F8FE597E00E940B11C8010E94B6125D
:103100000F5F1F4F0131110599F70E94ED1188EEF5
:1031100093E00E94FE10D3CEA1E0B0E06CCF80918E
:103120008F01142F181B812F90910001191748F45B
:103130008F5F891708F026CF81E083BF889513BE83
:1031400021CF11E010938E0140938F0180918C016B
:1031500090918D01019690938D0180938C018091C7
:10316000ED028093EC020E9403118093ED020E9415
:10317000740E1092EB021092EA021092E902109281
:10318000E8028091EE029091EF028130910509F4FE
:10319000EAC130F0029709F4A4C20E94ED11F2CE08
:1031A00010930101F092E902E092E80285E19CE1CE
:1031B0000E94C71117E3C12E11E0D12E0AE010E0E2
:1031C00090E080E05C012FEFA21AB20AF092E902CF
:1031D000E092E8021093EB020093EA022091E602EB
:1031E0003091E7022817390751F48091E402909159
:1031F000E502892B21F482E19CE10E94C711D601EE
:103200008D919D916D010E947812065F1F4FC5013F
:1032100085309105B9F681E0809302017092E90250
:103220006092E802F092EB02E092EA028AE09CE10E
:103230000E94C711E0910501F0910601EE0FFF1FFA
:10324000EB5DFE4F60817181072E000C880B990B9E
:103250000E948A128091E4029091E502019771F434
:103260008CE390E09093E9028093E802F092EB0205
:10327000E092EA0288E09CE10E94C7117092E902A4
:103280006092E802EEE1F0E0F093EB02E093EA02F4
:1032900080E09CE10E94C711E0910301F0910401DC
:1032A000EE0FFF1FE55EFE4F60817181072E000C5F
:1032B000880B990B0E948A128091E4029091E5029A
:1032C00082309105B9F58CE390E09093E902809308
:1032D000E8020EE110E01093EB020093EA028EEF99
:1032E0009BE10E94C71180E80E94E211811170C029
:1032F00080E10E94E21181116BC088E00E94E2111E
:10330000882341F08091030190910401843091055C
:103310000CF423C184E00E94E211882309F403C164
:103320008091030190910401181619060CF0FBC05E
:10333000019714C1009709F015C280E80E94E211BC
:10334000882369F08091E6029091E7021816190629
:1033500034F401979093E7028093E6021ECF80E158
:103360000E94E211882339F08091E6029091E702F1
:10337000843091055CF180E40E94E211811128C043
:1033800088E00E94E211882309F407CF8091E602C9
:103390009091E7028230910509F447C004F5009747
:1033A00071F10197C9F1A090E002B090E1027AE9D1
:1033B000C72E71E0D72EF60190E080E08A159B05BC
:1033C0000CF045C0819391930196F8CF0196C2CF3E
:1033D00021E030E03093E5022093E402DECE83303A
:1033E000910561F10497F9F682E298E19093E30286
:1033F0008093E2027092E1026092E002D4CF88E30F
:103400009BE19093E3028093E20283E690E0909345
:10341000E1028093E002C7CF82EF99E19093E3024B
:103420008093E20283EA90E0F2CF48E259E15093C0
:10343000E3024093E20285E690E0E9CFAEEAB8E12C
:10344000B093E302A093E2028DE390E0E0CF10E0BE
:1034500000E04501B1E08B1A910808151905ECF45C
:103460000E940E1CB501601B710B0E946E1DFC01B9
:10347000E00FF11FEE0FFF1FE656FE4F8081918196
:10348000D6012D913D916D0131832083FD0132974D
:10349000918380830F5F1F4FE0CF109299011092AC
:1034A00098011092970110929601E0910501F09118
:1034B0000601EE0FFF1FEB5DFE4F8081918190931F
:1034C0009501809394012FB7F8948091F102909127
:1034D000F202A091F302B091F4022FBF8093900109
:1034E00090939101A0939201B0939301E1E0F0E0F9
:1034F000F093EF02E093EE0250CE80E10E94E211E1
:10350000811139C188E00E94E211882339F080914D
:103510000501909106018830910584F084E00E94B5
:10352000E211811111C080E20E94E211882309F4A6
:1035300034CE1092E5021092E4022FCE01969093C1
:1035400006018093050129CE809105019091060125
:103550001816190644F70197F2CF019690930401CB
:10356000809303011ACE109301018AE198E10E9431
:10357000C7116091960170919701072E000C880B7E
:10358000990B0E948A12E0910301F0910401EE0F61
:10359000FF1FE55EFE4F80809180092C000CAA0879
:1035A000BB082FB7F8946091F1027091F2028091FC
:1035B000F3029091F4022FBF0091900110919101BC
:1035C0002091920130919301601B710B820B930B40
:1035D000A20191010E943D1D821A930AA40AB50A14
:1035E000181419041A041B0414F00E94F01120E5A9
:1035F00030E03093E9022093E8021092EB0210923F
:10360000EA02C501B4010E948A12E0919801F0918A
:103610009901EE0FFF1FE656FE4F80819181880FC2
:10362000991FE091E202F091E302E80FF91F659122
:103630007491CE0101960E94C21C66E671E0CE0133
:1036400001960E94C91C3EE1A32EB12C10E000E0BF
:10365000009771F1FC0101900020E9F73197E81B18
:10366000F90B36E03E9F60013F9FD00C112496017C
:10367000200F311F213831052CF048E0A40EB11C79
:1036800010E000E01093E9020093E802B092EB0230
:10369000A092EA020E94781256E0C50ED11C0C0DD1
:1036A0001D1D66E671E090E080E00E94C91CD0CF4D
:1036B00088E00E94E211882359F080919601909150
:1036C0009701019690939701809396010E94F011C3
:1036D00084E00E94E211882309F45FCD0E94F0117A
:1036E0005CCD1093010104E110E01093E902009316
:1036F000E8021093EB020093EA0280E198E10E9455
:10370000C7111093E9020093E80288E290E09093D9
:10371000EB028093EA0288E098E10E94C711609171
:10372000960170919701072E000C880B990B0E944F
:103730008A121093E9020093E80282E390E09093EA
:10374000EB028093EA0285EF97E10E94C71188E0BF
:103750000E94E211882309F420CD1092EF0210920A
:10376000EE021BCD019709F018CD80E80E94E2110E
:10377000882309F4C2CE02E010E01093E502009322
:10378000E4020BCD8F929F92AF92BF92CF92DF92C5
:10379000EF92FF92CF93DF93EC01688179818A8168
:1037A0009B81611571058105910521F464E279ED34
:1037B0008BE597E02DE133EF41E050E00E940B1DD7
:1037C00049015A019B01AC01A7EAB1E40E942A1DFC
:1037D0006B017C01ACEEB4EFA50194010E94381D91
:1037E000DC01CB018C0D9D1DAE1DBF1DB7FF03C0BD
:1037F0000197A109B04888839983AA83BB839F77E7
:10380000DF91CF91FF90EF90DF90CF90BF90AF907E
:103810009F908F9008950E94C21B089583E191E0CC
:103820000E94C21B0895B0E0A0E080931301909322
:103830001401A0931501B093160108958F929F92E1
:10384000AF92BF92CF92DF92EF92FF92CF93DF932E
:10385000EC01688179818A819B81611571058105FF
:10386000910521F464E279ED8BE597E02DE133EFEA
:1038700041E050E00E940B1D49015A019B01AC013F
:10388000A7EAB1E40E942A1D6B017C01ACEEB4EF03
:10389000A50194010E94381DC60ED71EE81EF91E10
:1038A000F7FE06C081E0C81AD108E10880E8F80AEE
:1038B000C882D982EA82FB82C701B6019F77DF9175
:1038C000CF91FF90EF90DF90CF90BF90AF909F90FF
:1038D0008F9008958F929F92AF92BF92CF92DF9276
:1038E000EF92FF9260911701709118018091190178
:1038F00090911A01611571058105910521F464E229
:1039000079ED8BE597E02DE133EF41E050E00E9447
:103910000B1D49015A019B01AC01A7EAB1E40E94C9
:103920002A1D6B017C01ACEEB4EFA50194010E944D
:10393000381DC60ED71EE81EF91EF7FE06C081E030
:10394000C81AD108E10880E8F80AC0921701D0929D
:103950001801E0921901F0921A01C701B6019F7790
:10396000FF90EF90DF90CF90BF90AF909F908F909F
:103970000895609317017093180180931901909333
:103980001A010895FB01DC0105900D920020E1F77A
:10399000089543E657E00E94CE1C0895FA01A191D4
:1039A000B081009719F41097E1F0CD01DC01CD0151
:1039B0000D90002011F4C00113C0FB0121912223BE
:1039C00019F02015D9F7F3CFFB012191201519F437
:1039D0001E92119606C02223C1F70D900020A1F778
:1039E000D001FA01A193B0830895F999FECF92BD59
:1039F00081BDF89A992780B50895262FF999FECFB1
:103A00001FBA92BD81BD20BD0FB6F894FA9AF99AFB
:103A10000FBE01960895052E97FB1EF400940E9498
:103A2000221D57FD07D00E943D1D07FC03D04EF418
:103A30000C94221D50954095309521953F4F4F4F46
:103A40005F4F089590958095709561957F4F8F4F4A
:103A50009F4F08950E945F1DA59F900DB49F900DEC
:103A6000A49F800D911D11240895B7FF0C942A1D69
:103A70000E942A1D821B930B0895A1E21A2EAA1BF5
:103A8000BB1BFD010DC0AA1FBB1FEE1FFF1FA2170E
:103A9000B307E407F50720F0A21BB30BE40BF50B0B
:103AA000661F771F881F991F1A9469F76095709594
:103AB000809590959B01AC01BD01CF010895A29F17
:103AC000B001B39FC001A39F700D811D1124911DF2
:103AD000B29F700D811D1124911D089597FB072E33
:103AE00016F4009407D077FD09D00E94821D07FCD0
:103AF00005D03EF4909581959F4F089570956195FE
:103B00007F4F0895AA1BBB1B51E107C0AA1FBB1F13
:103B1000A617B70710F0A61BB70B881F991F5A9559
:103B2000A9F780959095BC01CD010895EE0FFF1F78
:0C3B30000590F491E02D0994F894FFCF6B
:103B3C0010010101000300FFFFFFFF00E100000086
:103B4C00000000010000000100000005000A001444
:103B5C00001E003C0001000200040006000A000FD9
:103B6C000019003200630068016D01740179018352
:103B7C000100C1808100000000000000DF0E4A102F
:103B8C00000FF50E460F040F220F000000000B1162
:103B9C00CF1027122612200045617379004D656401
:103BAC0069756D0048617264004469666669637585
:0C3BBC006C7400416374696F6E7300004C
:00000001FF
