:100000000C945F040C9487040C9487040C9487046C
:100010000C9487040C9487040C9487040C94870434
:100020000C9487040C9487040C94E4080C945309F2
:100030000C9487040C9487040C9487040C94870414
:100040000C9487040C9487040C9487040C94870404
:100050000C9487040C9487040C9487040C94850BEF
:100060000C9487040C9487040C9487040C948704E4
:100070000C9487040C9487040C9487040C948704D4
:100080000C9487040C9487040C9487040C948704C4
:100090000C9487040C9487040C9487040C948704B4
:1000A0000C9487040C9487040C948704666565643B
:1000B000696E6720746865206475636B7300726194
:1000C0006B696E67206C65617665730064656C6949
:1000D000766572696E67206D61696C00636C696D2D
:1000E00062696E67204D6F756E7420457665726526
:1000F0007374006F7065726174696E672061206A45
:1001000061636B68616D6D657200706164646C69D8
:100110006E6720696E20612063616E6F65006C659B
:1001200076656C006C6966657374796C65006F69DF
:100130006C006E65676F74696174650067726174E5
:1001400069747564650065766F6C7574696F6E00AF
:1001500070657400736F667462616C6C00686F6FB9
:100160006B007261696E626F770067696E676572B6
:100170006272656164206D616E006F776C00736FF1
:10018000617000706164646C6500627574746F6E98
:100190000068656164616368650073616C757465AE
:1001A000007472756D7065740066696E67657200C3
:1001B00073686F756C646572006261636B70616314
:1001C0006B00746F6F74686272757368006261733C
:1001D0006562616C6C006C69700000000000003E9C
:1001E0005B4F5B3E3E6B4F6B3E1C3E7C3E1C183CA7
:1001F0007E3C181C577D571C1C5E7F5E1C00183C03
:100200001800FFE7C3E7FF0018241800FFE7DBE74B
:10021000FF30483A060E2629792926407F05050732
:10022000407F05253F5A3CE73C5A7F3E1C1C08088E
:100230001C1C3E7F14227F22145F5F005F5F060953
:100240007F017F006689956A606060606094A2FFAC
:10025000A29408047E040810207E201008082A1C9E
:1002600008081C2A08081E101010100C1E0C1E0C6A
:1002700030383E3830060E3E0E060000000000000A
:10028000005F00000007000700147F147F14242A79
:100290007F2A12231308646236495620500008074B
:1002A0000300001C2241000041221C002A1C7F1C6C
:1002B0002A08083E0808008070300008080808086E
:1002C000000060600020100804023E5149453E00D5
:1002D000427F400072494949462141494D33181433
:1002E000127F1027454545393C4A49493141211182
:1002F00009073649494936464949291E0000140074
:100300000000403400000008142241141414141496
:10031000004122140802015909063E415D594E7CF4
:100320001211127C7F494949363E414141227F41A9
:1003300041413E7F494949417F090909013E414107
:1003400051737F0808087F00417F41002040413FF2
:10035000017F081422417F404040407F021C027F01
:100360007F0408107F3E4141413E7F090909063E56
:100370004151215E7F091929462649494932030125
:100380007F01033F4040403F1F2040201F3F403837
:10039000403F631408146303047804036159494D12
:1003A00043007F4141410204081020004141417F48
:1003B00004020102044040404040000307080020BE
:1003C000545478407F2844443838444444283844BE
:1003D00044287F385454541800087E090218A4A4F5
:1003E0009C787F0804047800447D40002040403D14
:1003F000007F1028440000417F40007C047804788E
:100400007C080404783844444438FC182424181820
:10041000242418FC7C08040408485454542404047C
:100420003F44243C4040207C1C2040201C3C403069
:10043000403C44281028444C9090907C4464544C98
:1004400044000836410000007700000041360800F3
:1004500002010204023C2623263C1EA1A161123A9D
:100460004040207A385454555921555579412154EA
:10047000547841215554784020545579400C1E52EF
:100480007212395555555939545454593955545493
:10049000580000457C410002457D420001457C40FA
:1004A000F0292429F0F0282528F07C545545002017
:1004B00054547C547C0A097F4932494949323248B4
:1004C000484832324A4848303A4141217A3A42401B
:1004D0002078009DA0A07D39444444393D404040EF
:1004E0003D3C24FF2424487E4943662B2FFC2F2BC0
:1004F000FF0929F620C0887E090320545479410061
:1005000000447D413048484A32384040227A007ADF
:100510000A0A727D0D19317D2629292F28262929BD
:10052000292630484D4020380808080808080808DF
:10053000382F10C8ACBA2F102834FA00007B000006
:1005400008142A142222142A14089500220095AABD
:10055000005500AAAA55AA55AA000000FF001010D5
:1005600010FF00141414FF001010FF00FF1010F013
:1005700010F0141414FC001414F700FF0000FF0026
:10058000FF1414F404FC141417101F10101F101F74
:100590001414141F00101010F0000000001F1010A1
:1005A00010101F10101010F010000000FF1010109D
:1005B000101010101010FF10000000FF140000FFBA
:1005C00000FF00001F10170000FC04F414141710A3
:1005D000171414F404F40000FF00F7141414141496
:1005E0001414F700F7141414171410101F101F140C
:1005F0001414F4141010F010F000001F101F00006D
:10060000001F14000000FC140000F010F01010FF98
:1006100010FF141414FF141010101F00000000F03D
:1006200010FFFFFFFFFFF0F0F0F0F0FFFFFF000012
:10063000000000FFFF0F0F0F0F0F38444438447CB9
:100640002A2A3E147E02020606027E027E026355BC
:100650004941633844443C04407E201E2006027E0B
:10066000020299A5E7A5991C2A492A1C4C7201721D
:100670004C304A4D4D303048784830BC625A463D87
:100680003E494949007E0101017E2A2A2A2A2A443C
:10069000445F444440514A444040444A5140000071
:1006A000FF0103E080FF000008086B6B083612367C
:1006B0002436060F090F060000181800000010105D
:1006C000003040FF0101001F01011E00191D17121B
:1006D000003C3C3C3C0000000000F0F89C8E87830E
:1006E000878E9CF8F00000FEFF0303030303070E50
:1006F000FCF80000FEFF0303030303070EFCF800F1
:1007000000FFFF00000000000000FFFF0000FEFFF0
:100710008383838383C7EE7C380000F8FC0E0703D5
:100720000303070EFCF800003F7FE0C08080C0E0BC
:100730007F3FFFFF01010101010101FFFF0000FFF9
:10074000FF0C0C0C0C1C3E77E3C100007FFFC0C007
:10075000C0C0C0E0703F1F00001F3F70E0C0C0C0BD
:10076000E0703F1F00007FFFC1C1C1C1C1E3773E00
:100770001C00001F3F70E0C0C0C0E0703F1F0000C1
:1007800000000001FFFF01000000D5F08D14A1C89A
:1007900081CFD9F1AF20005072657373204120746E
:1007A0006F20506C617920416761696E0046696E07
:1007B000616C2053636F72653A200047616D65205C
:1007C0004F7665720053636F72653A20000A01F339
:1007D00000DC00CC00BE00AC0046013C0132012E22
:1007E0000124011E017A016A0162015D0154015078
:1007F00001A1019A0191018A0183017E01D601CDF7
:1008000001C201B901B001A9017300353A20416369
:1008100074696F6E7300343A204861726400333A31
:1008200020446966666963756C7400323A204D65D0
:100830006469756D00313A204561737900486561DE
:1008400064732D557020436861726164657300089C
:100850000B00020202000009040000010202000075
:1008600005240010010524010101042402060524C9
:100870000600010705810310004009040100020A77
:100880000000000705020240000007058302400047
:10089000000403090412010002EF02014041233663
:1008A0008000010102030141726475696E6F204C82
:1008B0004C430041726475626F790000020C112490
:1008C0001FBECFEFDAE0DEBFCDBF11E0A0E0B1E0A8
:1008D000E0E0F7E202C005900D92A235B107D9F72A
:1008E00026E0A2E5B1E001C01D92AD33B207E1F709
:1008F00014E0CFE5D4E004C02197FE010E947813F4
:10090000CE35D107C9F70E941F0C0C947E130C94AE
:10091000000080E0E9EEF1E081118FEF0024819387
:100920008193819381930394D1F70895E9EEF1E0E7
:10093000A0E0B8E000800EBC8111012C1197A0FD51
:10094000FDCF0192B9F70DB40895FC018091E80143
:10095000882311F13FB7F89482E08093E900209159
:10096000F200822F90E01816190614F481E090E04E
:10097000882339F0289844E64093E7014091F1003C
:100980004083222339F02091F200211103C02BE68D
:100990002093E8003FBF08958FEF9FEF08952FB792
:1009A000F89483E08093E9009091E800892F8072A9
:1009B00095FF04C09091F20080E4891B2FBF089539
:1009C0008091DF0181110DC082E08093DB0184E022
:1009D0008093DC011092DE011092DD0181E08093B2
:1009E000DF018BED91E00895CF93DF931F92CDB798
:1009F000DEB76983DC01ED91FC910280F381E02D8B
:100A000041E050E0BE016F5F7F4F09950F90DF918D
:100A1000CF91089583E08093E9008091F2008823CC
:100A200019F08AE38093E80008950E94CF0490E0D3
:100A30000895CF93DF931F92CDB7DEB7FC01848575
:100A4000958597FD08C02FEF3FEF358724870F90DE
:100A5000DF91CF910895CE0101960E94A5040197E0
:100A600019F4898190E0F3CF8FEF9FEFF0CF0F93D0
:100A70001F93CF93DF931F92CDB7DEB78C01FC019C
:100A80008485958597FF0BC0CE0101960E94A50431
:100A9000019771F4898190E0F80195878487F801C6
:100AA000848595850F90DF91CF911F910F910895C7
:100AB0008FEF9FEFF1CFFC018485958597FD0BC0EB
:100AC0009FB7F89482E08093E9008091F2009FBF85
:100AD00090E0019608959FB7F89482E08093E90032
:100AE0008091F2009FBF90E008954091D501509110
:100AF000D6012091D3013091D40142175307B4F4A9
:100B00009091E8009570E1F39091E80092FD19C092
:100B10008093F1008091D5019091D60101968F7359
:100B20009927892B19F48EEF8093E8008091D501E5
:100B30009091D60101969093D6018093D50181E0E2
:100B4000089580E00895DF92EF92FF920F931F9334
:100B5000CF93DF93D82E8A01EB017B01E40EF51EC3
:100B6000CE15DF0559F0D7FE12C0FE0184910E9418
:100B7000750521968111F4CF0FEF1FEFC801DF91AA
:100B8000CF911F910F91FF90EF90DF900895888192
:100B9000EECF0F931F93CF93DF931F92CDB7DEB7A6
:100BA00082E0898342E450E06FE478E080E80E94CC
:100BB000A3050E94E004DC0112960D911C91011521
:100BC000110589F0D801ED91FC910280F381E02DAF
:100BD000BE016F5F7F4FC801099597FD04C0F80102
:100BE00000851185ECCF89810F90DF91CF911F9106
:100BF0000F910895615030F02091F100FC012083A5
:100C00000196F8CF289884E68093E70108953FB7CE
:100C1000F8948091CF019091D001A091D101B09131
:100C2000D20126B5A89B05C02F3F19F00196A11D42
:100C3000B11D3FBFBA2FA92F982F8827BC01CD0126
:100C4000620F711D811D911D42E0660F771F881F85
:100C5000991F4A95D1F708958F929F92AF92BF92B4
:100C6000CF92DF92EF92FF926B017C010E94070608
:100C70004B015C01C114D104E104F104B9F00E94FC
:100C80000706681979098A099B09683E734081053E
:100C9000910580F321E0C21AD108E108F10888EE3D
:100CA000880E83E0981EA11CB11CE4CFFF90EF904A
:100CB000DF90CF90BF90AF909F908F9008958F92CC
:100CC0009F92AF92BF92CF92DF92EF92FF920F93DB
:100CD0001F93CF93DF936C017B018A0180911001F8
:100CE000882309F45CC08091E801882309F457C087
:100CF0008091DA0180FF05C08091E00082608093DE
:100D0000E000E801B12C8AEFA82E93E0892E2AE3B7
:100D1000922E209711F4BB20D9F10E94CF048111AB
:100D20000AC0AA94AA20D9F161E070E080E090E0C6
:100D30000E942C06EECF8C171D0611F00CF08C2FA4
:100D40009FB7F8948092E9002091E80025FD02C049
:100D50009FBFDFCF282F30E0C21BD30BF70181509C
:100D600020F041914093F100FACFE20EF31EBB2038
:100D700021F09092E800B12CEBCF8091E80085FD46
:100D8000E7CF9092E800BB24B394209709F3F3CF08
:100D90005D9884E68093D901101611063CF081E03D
:100DA00090E0F6019383828310E000E0C801DF91B8
:100DB000CF911F910F91FF90EF90DF90CF90BF9058
:100DC000AF909F908F900895AF92BF92CF92DF9295
:100DD000EF92FF920F931F93CF93DF936C017B01F0
:100DE0008B01040F151FEB015E01AE18BF08C01781
:100DF000D10759F06991D601ED91FC910190F081F4
:100E0000E02DC6010995892B79F7C501DF91CF91B6
:100E10001F910F91FF90EF90DF90CF90BF90AF9018
:100E200008952D9A0895BC0190E080E00C942C0662
:100E30008FB18095807F669B88601C9B846008953D
:100E400020E191E061FD94E060FD990F62FD9295D3
:100E5000687F269FD0011124A80FA751BE4F8C9107
:100E600040FF03C0892B8C93089590958923FBCF75
:100E7000EF92FF920F931F93CF93DF937C018B012F
:100E8000040F111DEB0177FF02C0D0E0C0E0C801E4
:100E90000134110514F080E490E0C817D9075CF420
:100EA00080E8E816F10428F441E0BE01C7010E9481
:100EB00020072196ECCFDF91CF911F910F91FF90EA
:100EC000EF9008952F923F924F925F926F927F9290
:100ED0008F929F92AF92BF92CF92DF92EF92FF924A
:100EE0000F931F93CF93DF9300D000D000D0CDB7E6
:100EF000DEB76D30C9F0309001016090C401709090
:100F0000C501032D10E06A3051F51092C301109213
:100F1000C20183E0000F111F8A95E1F7600E711E78
:100F20007092C5016092C40181E090E026960FB6F0
:100F3000F894DEBF0FBECDBFDF91CF911F910F910F
:100F4000FF90EF90DF90CF90BF90AF909F908F90E9
:100F50007F906F905F904F903F902F9008952091D9
:100F600002012B834090C2015090C301E5E06E9FC7
:100F7000C001112486529E4F9E838D836201198287
:100F8000F981212CF53041F08D819E810196ED8112
:100F9000FE8124909E838D834301F8E0FA8320FC38
:100FA00005C02B81222319F11C8202C08B818C8306
:100FB00076018E2D8C198315D0F4B12CA12CA3149D
:100FC00090F490E8E916F10450F4B4016A0D7B1D29
:100FD0006034710520F44C81C7010E942007EFEFB7
:100FE000AE1ABE0AECCFFFEFEF1AFF0AE2CF26944B
:100FF0002A8121502A83800E911E2111D0CF898110
:101000008F5F8983C00ED11E863009F0B9CF389E1C
:10101000400C511C11245092C3014092C20184CF54
:101020000F931F93CF93DF938C01D0E0C0E0F801C2
:10103000EC0FFD1F6491662341F089E396E00E9466
:101040006207892B11F02196F2CFCE01DF91CF916B
:101050001F910F9108959091C601982329F49091C2
:10106000C701982381E009F480E0089580E00C94A2
:1010700096048091B4019091B50101969093B501C9
:101080008093B4012091BC013091BD018217930778
:101090003CF082E090E09093C9018093C8010895EC
:1010A0002FB7F8948091CB019091CC01A091CD0104
:1010B000B091CE012FBF8093B0019093B101A09366
:1010C000B201B093B3010895089590E080E00895CF
:1010D0008F929F92AF92BF920F931F93CF93DF9304
:1010E000CDB7DEB7A1970FB6F894DEBF0FBECDBF68
:1010F00019A2423008F44AE08E010F5D1F4F842E82
:10110000912CB12CA12CA50194010E941F13E62F54
:10111000B901CA01EA3044F5E05DD801EE938D01D2
:10112000232B242B252B79F790E080E0109769F092
:10113000FD0101900020E9F73197AF014A1B5B0BDD
:10114000BD0189E396E00E94E406A1960FB6F894EB
:10115000DEBF0FBECDBFDF91CF911F910F91BF902A
:10116000AF909F908F900895E95CD7CFCF92DF9298
:10117000EF92FF92CF93DF9397FF1BC06B017C012F
:101180006DE289E396E00E946207EC01662777270B
:10119000CB016C197D098E099F094AE00E946808FD
:1011A0008C0F9D1FDF91CF91FF90EF90DF90CF903C
:1011B00008954AE0DF91CF91FF90EF90DF90CF90BC
:1011C0000C9468080C94D7121F920F920FB60F92CE
:1011D00011248F939F938091E1009091E100937F80
:1011E0009093E10083FF0FC01092E90091E090938B
:1011F000EB001092EC0092E39093ED001092E80166
:1012000098E09093F00082FF22C093E09093E90071
:101210009091F200992319F09AE39093E80090914D
:10122000D901992341F09091D90191509093D9011E
:10123000911101C05D9A9091E701992341F090913D
:10124000E70191509093E701911101C0289A84FF22
:1012500018C08091E2008E7E81608093E2008091D0
:10126000E1008F7E8093E1008091DA018E7E8061C3
:101270008093DA019F918F910F900FBE0F901F9076
:10128000189580FFF7CF8091E2008E7E8061809379
:10129000E2008091E1008E7E8093E1008091DA018E
:1012A0008E7E8160E5CF1F920F920FB60F921124B0
:1012B000CF92DF92EF92FF920F931F932F933F9362
:1012C0004F935F936F937F938F939F93AF93BF934E
:1012D000EF93FF93CF93DF93CDB7DEB76C97DEBF6D
:1012E000CDBF1092E9008091E80083FF25C068E03F
:1012F000CE0145960E94FA0582EF8093E8008D8921
:1013000087FF39C09091E80090FFFCCF982F90762E
:1013100009F034C19E894F89588D2F89F88C91111D
:1013200031C0803861F58091D8018093F10010922E
:10133000F1008EEF8093E8006C960FB6F894DEBF54
:101340000FBECDBFDF91CF91FF91EF91BF91AF91D4
:101350009F918F917F916F915F914F913F912F91CD
:101360001F910F91FF90EF90DF90CF900F900FBEE5
:101370000F901F9018959EEF9093E800C7CF1092A2
:10138000F100D5CF913059F48111D3CF41305105BF
:1013900081F68091D8018D7F8093D801CACF933098
:1013A00049F48111C6CF4130510519F68091D80119
:1013B0008260F2CF953041F48091E80080FFFCCF4D
:1013C00020682093E300B5CF963009F0A9C00B8DBB
:1013D0001C8D22E01092E9001092D6011092D501E6
:1013E000F2122EC01092D4011092D3010E94C905AE
:1013F0001F8299E09983FA8291E09E8390EA988710
:101400009AEF99872091D5013091D601275F3F4F00
:101410003C832B838D831092E9001092D6011092A9
:10142000D5011093D4010093D30149E050E0BE01EF
:101430006F5F7F4F80E00E94A3050E94C90579CFAE
:101440001093D4010093D3010E94E004DC011296B2
:101450000D911C910115110509F451C1D801ED91AF
:10146000FC910480F581E02DBE016B5E7F4FC801C9
:101470000995009709F03EC1F80100851185EACF72
:10148000F3E0FF120EC08F89882309F440C0823038
:1014900061F440E867E083EB98E00E94CF0B811194
:1014A00048CF81E28093EB0047CF813029F440E8B8
:1014B0006BE087EA98E0F1CF833099F70E94E0046F
:1014C000DC011296ED90FC908E010F5F1F4F6801BA
:1014D000E114F10479F0D701ED91FC910680F781D8
:1014E000E02DB801C7010995080F111DF701E0842F
:1014F000F184EECFD8011C92F60101900020E9F7AB
:101500003197BF016C197D0940E0C601C6CF61E982
:1015100078E0FB01449150E080E80E94A30509CFE8
:10152000973009F4BECF983021F481E08093F10028
:1015300000CF993009F0FDCE837009F0B2CFEEE212
:10154000F1E081E031E096E32191222371F0809374
:10155000E9003093EB00DF0111972C912093EC0010
:101560009093ED008F5F873079F78EE78093EA00E4
:101570001092EA008F898093E801DBCE8B8D9C8DE1
:101580001092E9001092D6011092D5019093D401E7
:101590008093D301898D811192C08E899D89913A62
:1015A00049F4813209F07DCF47E050E069E071E015
:1015B00080E0B3CF913209F074CF833269F48F8920
:1015C000988DB0E0A0E08093050190930601A09370
:1015D0000701B0930801ADCE803269F48091E80034
:1015E00082FFFCCF67E089E091E00E94FA058BEF73
:1015F0008093E8009ECE823209F09BCE8F89809343
:101600001001EEEFFFE7859194918B3F9C4D51F1D6
:10161000E0E0F8E08091090190910A01A0910B01AE
:10162000B0910C01803B9440A105B105F1F480918B
:10163000100180FD1AC0EE3F8AE0F80789F587E7C0
:1016400097E791838083809160008093D70188E140
:101650009BE00FB6F894A895809360000FBE90931E
:10166000600067CEEEEFFAE0D5CF808191818737B9
:10167000974709F05ECEA8958091600088618093BD
:1016800060008091D70180936000EE3F2AE0F2076E
:1016900089F08091FE0A9091FF0A9183808349CE60
:1016A000808191818737980751F29093FF0A809348
:1016B000FE0AC5CF1092FF0A1092FE0A3ACE0E948F
:1016C000E004DC0112960D911C910115110509F43D
:1016D000E8CED801ED91FC910190F081E02DBE01A2
:1016E0006B5E7F4FC8010995811123CEF8010085FB
:1016F0001185EBCF181619060CF41BCED2CEF1E0F3
:10170000FF12BECE65E978E004CF1F920F920FB6AC
:101710000F9211242F933F938F939F93AF93BF9377
:101720008091CB019091CC01A091CD01B091CE01DF
:101730003091CA0123E0230F2D3758F50196A11DE2
:10174000B11D2093CA018093CB019093CC01A0934B
:10175000CD01B093CE018091CF019091D001A091A5
:10176000D101B091D2010196A11DB11D8093CF018D
:101770009093D001A093D101B093D201BF91AF91CA
:101780009F918F913F912F910F900FBE0F901F90BF
:10179000189526E8230F0296A11DB11DD2CFEF9216
:1017A000FF920F931F93CF93DF93F82E192FE62EFE
:1017B000042F81E0860F880F0E94750583E00E9448
:1017C0007505CF2DD12FEC0EFD2EF11CCE15DF05AA
:1017D000B9F007FF13C0FE0184910E947505182F10
:1017E00080E00E947505812321968111EFCFDF9162
:1017F000CF911F910F91FF90EF9008958881EDCFC9
:1018000081E0F5CFE9EEF5E01382128288EE93E0F5
:10181000A0E0B0E084839583A683B78388E391E05A
:10182000918380838FEF9FEF95878487E9E3F6E0CC
:10183000138212828AE491E09183808308957894E0
:1018400084B5826084BD84B5816084BD85B58260C5
:1018500085BD85B5816085BD80916E008160809376
:101860006E001092810080918100826080938100DF
:1018700080918100816080938100809180008160EF
:10188000809380008091910082608093910080918C
:10189000910081608093910080919000816080939D
:1018A00090008091C10084608093C1008091C1004C
:1018B00082608093C1008091C10081608093C100EB
:1018C0008091C30081608093C3008091C0008260DA
:1018D0008093C0008091C20081608093C20080919B
:1018E0007A00846080937A0080917A00826080938D
:1018F0007A0080917A00816080937A0080917A00EA
:10190000806880937A001092E8011092D8011092BA
:10191000DA018091D70081608093D70080EA8093BC
:10192000D80089B5806189BD89B5826089BD09B457
:1019300000FEFDCF61E070E080E090E00E942C06A8
:101940008091D8008F7C80618093D8008091E000E6
:10195000807F8093E0008091E1008E7E8093E100A3
:101960008DE08093E200559A209A81EC80937C0070
:1019700085B1806F85B984B1877E84B984B1876E63
:1019800084B95E9A5F988AB1806D8AB9769A6E98AA
:1019900081B3806F81BB899880B38D7080BB80E5F7
:1019A0008CBD81E08DBD85E090E00E9413075F9AB9
:1019B00085E090E00E9413075E985C98EAE8F7E003
:1019C00084918EBD00000DB407FEFDCF319607E077
:1019D000E739F007A9F75C9A81E880936400809169
:1019E00065008160809365000E9436080E94180798
:1019F00087FF15C05C9885EA8EBD00000DB407FE18
:101A0000FDCF5C9A2E982F982D988091640080626B
:101A10008093640081E083BF889513BEFCCF0E9451
:101A2000180782FF48C02D980E94180784788438D0
:101A3000E1F40E94110788EC90E00E9413072F98B0
:101A400082E090E00E94D7128F3F29F06FEF82E092
:101A500090E00E94DF1284EF91E00E9413072F9A1A
:101A60000E94180784788438D9F30E94180784717B
:101A70008431E1F40E94110788EC90E00E94130782
:101A80002E9882E090E00E94D712882329F060E02F
:101A900082E090E00E94DF1284EF91E00E94130741
:101AA0002E9A0E94180784718431D9F388EC90E053
:101AB0000E941307B4CF0E94110782E090E00E94B9
:101AC000E208882309F479C03E9A3F9A81E090E0C9
:101AD0000E94E208182F1470912E81FF10C011117E
:101AE0002E98C1EFDFEF08E010E078E5872E0E9426
:101AF000180786FF65C02E9A2F9A0E94110782E36D
:101B000090E00E9413070E9418078111F8CF80E12E
:101B1000809300010E9489041092C5011092C401B3
:101B20001092C3011092C201809164008E7F809355
:101B3000640080917A00806480937A0080917A00BA
:101B400086FDFCCFC0917800D09179000E940706F5
:101B5000AB01BC01CE01B0E0A0E0DC0199278827F1
:101B60008C019D01040F151F261F371FC901B801E5
:101B70002091640021602093640061157105810546
:101B8000910511F00E94C7122FB7F8948091CB01F4
:101B90009091CC01A091CD01B091CE012FBF2091A9
:101BA0005401222309F4CDC01092540180E090E04A
:101BB000892B51F30E940000E7CF3E983F9886CFD3
:101BC000992029F0C430D10511F42E9A2F9881E084
:101BD0000E9496049E01D7FF04C0222733272C1BA6
:101BE0003D0B27703327CE01D7FD079663E095950F
:101BF00087956A95E1F7D7FF05C00197A801421BB9
:101C0000530B9A01BC017695762F662777956795D9
:101C100067517E4FF12CE12C3801621A730A8E3F16
:101C20005FEF950709F43DC08E9CD0018F9CB00DED
:101C3000112450E040E0A652B94F5B01E0E8AE0E3F
:101C4000B11C8F3F980791F0FD01E40FF51FE4915F
:101C50006B01C40ED51EF0E02F01022E01C0440C12
:101C60000A94EAF7F60154884528448A211531057B
:101C700099F0FD01E40FF51FE4916501C40ED51E36
:101C8000F0E02F01062C02C0559447940A94E2F725
:101C9000F60154884528448A4F5F5F4F4835510507
:101CA00081F6019660587F4FEA94EF2809F045C00D
:101CB0000E9436088FE090E00E9413072196C931F8
:101CC000D10509F014CF992011F02F9A2D9880E9B1
:101CD00091E00E9413070E94110781E090E00E94AA
:101CE000E20880FF0CCF8AE090E00E94E2089FEFBC
:101CF000980F9E3F08F003CF22E330E03093C301FA
:101D00002093C20128E330E03093C5012093C40141
:101D1000CBE0D0E0682F89E396E00E946207CE0115
:101D20000E94E2082196C131D105A1F70E94360830
:101D300088EE93E00E941307E2CEEE24E394F12CA8
:101D40006ECF20915501182F121B212F30910001C9
:101D5000131748F42F5F231708F028CF81E083BFC3
:101D6000889513BE23CFC1E0C093540180935501E1
:101D70008091520190915301019690935301809369
:101D800052018091C7018093C6010E941807809379
:101D9000C7010E9489041092C5011092C4011092DB
:101DA000C3011092C2018091C8019091C901813094
:101DB000910509F40AC230F0029709F412C30E9497
:101DC0003608F4CEC09301012AE030E03093C3011D
:101DD0002093C2018DE398E00E9410081092C30185
:101DE0001092C20140E150E05093C5014093C401FC
:101DF00085E398E00E9410081092C3011092C2017E
:101E00008AE190E09093C5018093C4018BE298E051
:101E10000E9410081092C3011092C201A4E2B0E027
:101E2000B093C501A093C4018EE198E00E94100810
:101E30001092C3011092C201EEE2F0E0F093C501EE
:101E4000E093C40186E198E00E9410081092C3015B
:101E50001092C20108E310E01093C5010093C40181
:101E60008BE098E00E941008CCE6D0E049E068E3FF
:101E700070E0CE010E9438072196C838D105B1F72D
:101E8000109202012EE630E03093C3012093C2018C
:101E900089E390E09093C5018093C401E091030130
:101EA000F0910401EE0FFF1FEE0FFF1FEB5EFE4FE0
:101EB000608171818281938128EE33E040E050E0BF
:101EC0000E941F13CA01B9014AE00E94680889E014
:101ED00098E00E94100881E080930201C091C00147
:101EE000D091C101C530D10509F068C047E069E370
:101EF00070E08AE690E00E94380744244394512C15
:101F0000F12CE12C03E010E0FAEFAF2EBB24BA94E1
:101F1000AEEF6A2E77247A945FEFE51AF50A82E035
:101F2000480E511C640C751C302E330C3394432D19
:101F30006CE3C62ED12CC01AD10AB601C70186594E
:101F40009F4F0E9438077CE3872E912C8E189F08A4
:101F5000442DB401C80186599F4F0E943807432D74
:101F6000B6018AE690E08E199F090E943807442D39
:101F7000B4018AE690E0801B910B0E943807E016BE
:101F8000F1067CF080E80E942B08882309F451C0F8
:101F90001C161D0664F52197D093C101C093C001A2
:101FA0002CC03FEF6316730609F4B6CF0150110938
:101FB00042E0A40EB11C6A0C7B1CAECFC530D1052B
:101FC0000CF78AE08C9F70018D9FF00C112490E13A
:101FD000E90EF11C10E000E048E0B701C8010E94E2
:101FE00038070F5F1F4F08301105B1F7CBCF85E0E1
:101FF00090E09093C1018093C001C091C001D09145
:10200000C101C530D10509F0DACE80E20E942B086B
:10201000882309F4CAC08091030190910401181625
:1020200019060CF0BDC00197909304018093030141
:10203000C6CE80E10E942B08882351F0C530D1051F
:1020400014F42196A9CF1092C1011092C001D5CFEE
:1020500088E00E942B08882381F2C230D10509F460
:1020600067C00CF04FC0209709F45FC081EF97E084
:10207000219709F44FC0E0910301F0910401EE0FA4
:10208000FF1FEE0FFF1FEB5EFE4F80819181A2814B
:10209000B3818093B8019093B901A093BA01B09332
:1020A000BB011092B7011092B6011092B5011092C7
:1020B000B4012FB7F8948091CB019091CC01A091FD
:1020C000CD01B091CE012FBF8093B0019093B101AB
:1020D000A093B201B093B30181E090E09093C90165
:1020E0008093C8012091BC013091BD0108E811E046
:1020F000F80190E080E08217930704F581939193B3
:102100000196F9CFC330D105B1F08DEC97E024975B
:1021100009F0B1CF9093BF018093BE0186E090E0BB
:102120009093BD018093BC01A6CF8DEF97E0F2CFD5
:1021300085EE97E0EFCF89ED97E0ECCFD0E0C0E0FF
:10214000C090BC01D090BD01C6010197C817D90746
:102150000CF053CFCC1ADD0A0D2C000CEE08FF0852
:10216000C114D104E104F10439F00E947812A701EE
:1021700096010E94ED126B01FE01EC0DFD1DD801D0
:102180008D919D918D01EE0FFF1FE857FE4F20812D
:10219000318112972D933C93918380832196D0CFE8
:1021A000D0930401C09303010ACE80E40E942B085F
:1021B000882309F404CE80910301909104010196D3
:1021C00066E070E00E9450132FCFC093010185ECB0
:1021D00097E00E9410086091B6017091B701072E38
:1021E000000C880B990B0E94B6088091B001909169
:1021F000B101A091B201B091B3012FB7F894409111
:10220000CB015091CC016091CD017091CE012FBFD7
:102210000091B8011091B9012091BA013091BB0130
:10222000800F911FA21FB31F8C019D01041B150B72
:10223000260B370BC901B80128EE33E040E050E02F
:102240000E941F13209384013093850140938601DF
:10225000509387012115310541055105B9F422E05C
:1022600030E03093C9012093C80188E00E942B0818
:102270008111ABC084E00E942B08882309F49FCD14
:102280008091B6019091B7010197A4C08CE590E0D0
:102290009093C3018093C2011092C5011092C401B2
:1022A000CA01B9010E94B6088091B4019091B501AC
:1022B0002091BC013091BD018217930784F6880FED
:1022C000991FFC01E857FE4F80819181880F991F6B
:1022D000E091BE01F091BF01E80FF91F6591749183
:1022E00086E591E00E94D01210928301E6E5F1E0CC
:1022F00001900020E9F7DF01A755B1402D01CD0184
:10230000449665E170E00E9464138B0165307105AD
:1023100014F004E010E088E0682E712C601A710A55
:10232000660C771C660C771CB12CA12CD0E0C0E0A9
:10233000A016B1060CF099CF4E01FE01EA5AFE4FED
:102340007F01CE01D12CC12CEC018415950564F4DC
:1023500021912A3049F0019625E1C216D10421F0DD
:102360003FEFC31AD30AF0CF1092C3011092C201FB
:102370007092C5016092C401C701881999098655F8
:1023800091408C159D0544F4D7016D917D0189E341
:1023900096E00E946207F0CFFE01EA5AFE4F80816C
:1023A0008A3009F42196FE01EA5AFE4F819180326B
:1023B00029F4C415D50514F42196F8CFBFEFAB1A54
:1023C000BB0AE8E06E0E711CB3CF8091B60190910C
:1023D000B70101969093B7018093B6010E94390826
:1023E000EECCC0930101C4E1D0E0D093C301C0930F
:1023F000C2018BEB97E00E9410081092C30110926B
:10240000C201D093C501C093C4018DEA97E00E9438
:1024100010086091B6017091B701072E000C880B6F
:10242000990B0E94B6081092C3011092C20188E273
:1024300090E09093C5018093C40187E997E00E94E2
:10244000100888E00E942B08882309F4B8CC109269
:10245000C9011092C801B3CC8F929F92AF92BF92E4
:10246000CF92DF92EF92FF92CF93DF93EC016881DE
:1024700079818A819B81611571058105910521F41E
:1024800064E279ED8BE597E02DE133EF41E050E038
:102490000E94ED1249015A019B01AC01A7EAB1E487
:1024A0000E940C136B017C01ACEEB4EFA50194010A
:1024B0000E941A13C60ED71EE81EF91EF7FE06C0AC
:1024C00081E0C81AD108E10880E8F80AC882D982F8
:1024D000EA82FB82C701B6019F77DF91CF91FF901F
:1024E000EF90DF90CF90BF90AF909F908F90089526
:1024F0008F929F92AF92BF92CF92DF92EF92FF9214
:102500006091110170911201809113019091140159
:10251000611571058105910521F464E279ED8BE582
:1025200097E02DE133EF41E050E00E94ED124901C8
:102530005A019B01AC01A7EAB1E40E940C136B01A4
:102540007C01ACEEB4EFA50194010E941A13C60EF3
:10255000D71EE81EF91EF7FE06C081E0C81AD10892
:10256000E10880E8F80AC0921101D0921201E092CD
:102570001301F0921401C701B6019F77FF90EF900D
:10258000DF90CF90BF90AF909F908F900895609311
:102590001101709312018093130190931401089517
:1025A000FB01DC0105900D920020E1F70895F999F7
:1025B000FECF92BD81BDF89A992780B50895262F48
:1025C000F999FECF1FBA92BD81BD20BD0FB6F89418
:1025D000FA9AF99A0FBE01960895052E97FB1EF4FC
:1025E00000940E94041357FD07D00E941F1307FC9C
:1025F00003D04EF40C9404135095409530952195DA
:102600003F4F4F4F5F4F089590958095709561951E
:102610007F4F8F4F9F4F08950E944113A59F900DAC
:10262000B49F900DA49F800D911D11240895B7FFB4
:102630000C940C130E940C13821B930B0895A1E2BF
:102640001A2EAA1BBB1BFD010DC0AA1FBB1FEE1F2C
:10265000FF1FA217B307E407F50720F0A21BB30B77
:10266000E40BF50B661F771F881F991F1A9469F7F3
:1026700060957095809590959B01AC01BD01CF014F
:102680000895A29FB001B39FC001A39F700D811D4B
:102690001124911DB29F700D811D1124911D08956B
:1026A000AA1BBB1B51E107C0AA1FBB1FA617B70778
:1026B00010F0A61BB70B881F991F5A95A9F7809594
:1026C0009095BC01CD01089597FB072E16F4009458
:1026D00007D077FD09D00E94501307FC05D03EF4C7
:1026E000909581959F4F0895709561957F4F0895BE
:1026F000EE0FFF1F0590F491E02D0994F894FFCFA1
:102700001001010200FFFFFFFF00E10000000000D8
:1027100000010000008813000010270000204E0078
:102720000030750000C8AF000060EA000000C18002
:102730008100000000000000F4045F0615050A0592
:102740005B0519053705000000006207E40665080F
:0227500064081B
:00000001FF
