:100000000C945E040C9486040C9486040C94860470
:100010000C9486040C9486040C9486040C94860438
:100020000C9486040C9486040C94B2080C94210958
:100030000C9486040C9486040C9486040C94860418
:100040000C9486040C9486040C9486040C94860408
:100050000C9486040C9486040C9486040C94530B24
:100060000C9486040C9486040C9486040C948604E8
:100070000C9486040C9486040C9486040C948604D8
:100080000C9486040C9486040C9486040C948604C8
:100090000C9486040C9486040C9486040C948604B8
:1000A0000C9486040C9486040C948604666565643E
:1000B000696E6720746865206475636B7300726194
:1000C0006B696E67206C65617665730064656C6949
:1000D000766572696E67206D61696C00636C696D2D
:1000E00062696E67204D6F756E7420457665726526
:1000F0007374006F7065726174696E672061206A45
:1001000061636B68616D6D657200706164646C69D8
:100110006E6720696E20612063616E6F65006C659B
:1001200076656C006C6966657374796C65006F69DF
:100130006C006E65676F74696174650067726174E5
:1001400069747564650065766F6C7574696F6E00AF
:1001500070657400736F667462616C6C00686F6FB9
:100160006B007261696E626F770067696E676572B6
:100170006272656164206D616E006F776C00736FF1
:10018000617000706164646C6500627574746F6E98
:100190000068656164616368650073616C757465AE
:1001A000007472756D7065740066696E67657200C3
:1001B00073686F756C646572006261636B70616314
:1001C0006B00746F6F74686272757368006261733C
:1001D0006562616C6C006C69700000000000003E9C
:1001E0005B4F5B3E3E6B4F6B3E1C3E7C3E1C183CA7
:1001F0007E3C181C577D571C1C5E7F5E1C00183C03
:100200001800FFE7C3E7FF0018241800FFE7DBE74B
:10021000FF30483A060E2629792926407F05050732
:10022000407F05253F5A3CE73C5A7F3E1C1C08088E
:100230001C1C3E7F14227F22145F5F005F5F060953
:100240007F017F006689956A606060606094A2FFAC
:10025000A29408047E040810207E201008082A1C9E
:1002600008081C2A08081E101010100C1E0C1E0C6A
:1002700030383E3830060E3E0E060000000000000A
:10028000005F00000007000700147F147F14242A79
:100290007F2A12231308646236495620500008074B
:1002A0000300001C2241000041221C002A1C7F1C6C
:1002B0002A08083E0808008070300008080808086E
:1002C000000060600020100804023E5149453E00D5
:1002D000427F400072494949462141494D33181433
:1002E000127F1027454545393C4A49493141211182
:1002F00009073649494936464949291E0000140074
:100300000000403400000008142241141414141496
:10031000004122140802015909063E415D594E7CF4
:100320001211127C7F494949363E414141227F41A9
:1003300041413E7F494949417F090909013E414107
:1003400051737F0808087F00417F41002040413FF2
:10035000017F081422417F404040407F021C027F01
:100360007F0408107F3E4141413E7F090909063E56
:100370004151215E7F091929462649494932030125
:100380007F01033F4040403F1F2040201F3F403837
:10039000403F631408146303047804036159494D12
:1003A00043007F4141410204081020004141417F48
:1003B00004020102044040404040000307080020BE
:1003C000545478407F2844443838444444283844BE
:1003D00044287F385454541800087E090218A4A4F5
:1003E0009C787F0804047800447D40002040403D14
:1003F000007F1028440000417F40007C047804788E
:100400007C080404783844444438FC182424181820
:10041000242418FC7C08040408485454542404047C
:100420003F44243C4040207C1C2040201C3C403069
:10043000403C44281028444C9090907C4464544C98
:1004400044000836410000007700000041360800F3
:1004500002010204023C2623263C1EA1A161123A9D
:100460004040207A385454555921555579412154EA
:10047000547841215554784020545579400C1E52EF
:100480007212395555555939545454593955545493
:10049000580000457C410002457D420001457C40FA
:1004A000F0292429F0F0282528F07C545545002017
:1004B00054547C547C0A097F4932494949323248B4
:1004C000484832324A4848303A4141217A3A42401B
:1004D0002078009DA0A07D39444444393D404040EF
:1004E0003D3C24FF2424487E4943662B2FFC2F2BC0
:1004F000FF0929F620C0887E090320545479410061
:1005000000447D413048484A32384040227A007ADF
:100510000A0A727D0D19317D2629292F28262929BD
:10052000292630484D4020380808080808080808DF
:10053000382F10C8ACBA2F102834FA00007B000006
:1005400008142A142222142A14089500220095AABD
:10055000005500AAAA55AA55AA000000FF001010D5
:1005600010FF00141414FF001010FF00FF1010F013
:1005700010F0141414FC001414F700FF0000FF0026
:10058000FF1414F404FC141417101F10101F101F74
:100590001414141F00101010F0000000001F1010A1
:1005A00010101F10101010F010000000FF1010109D
:1005B000101010101010FF10000000FF140000FFBA
:1005C00000FF00001F10170000FC04F414141710A3
:1005D000171414F404F40000FF00F7141414141496
:1005E0001414F700F7141414171410101F101F140C
:1005F0001414F4141010F010F000001F101F00006D
:10060000001F14000000FC140000F010F01010FF98
:1006100010FF141414FF141010101F00000000F03D
:1006200010FFFFFFFFFFF0F0F0F0F0FFFFFF000012
:10063000000000FFFF0F0F0F0F0F38444438447CB9
:100640002A2A3E147E02020606027E027E026355BC
:100650004941633844443C04407E201E2006027E0B
:10066000020299A5E7A5991C2A492A1C4C7201721D
:100670004C304A4D4D303048784830BC625A463D87
:100680003E494949007E0101017E2A2A2A2A2A443C
:10069000445F444440514A444040444A5140000071
:1006A000FF0103E080FF000008086B6B083612367C
:1006B0002436060F090F060000181800000010105D
:1006C000003040FF0101001F01011E00191D17121B
:1006D000003C3C3C3C0000000000F0F89C8E87830E
:1006E000878E9CF8F00000FEFF0303030303070E50
:1006F000FCF80000FEFF0303030303070EFCF800F1
:1007000000FFFF00000000000000FFFF0000FEFFF0
:100710008383838383C7EE7C380000F8FC0E0703D5
:100720000303070EFCF800003F7FE0C08080C0E0BC
:100730007F3FFFFF01010101010101FFFF0000FFF9
:10074000FF0C0C0C0C1C3E77E3C100007FFFC0C007
:10075000C0C0C0E0703F1F00001F3F70E0C0C0C0BD
:10076000E0703F1F00007FFFC1C1C1C1C1E3773E00
:100770001C00001F3F70E0C0C0C0E0703F1F0000C1
:1007800000000001FFFF01000000D5F08D14A1C89A
:1007900081CFD9F1AF20005072657373204120746E
:1007A0006F20506C617920416761696E0046696E07
:1007B000616C2053636F72653A200047616D65205C
:1007C0004F7665720053636F72653A20000A01F339
:1007D00000DC00CC00BE00AC0046013C0132012E22
:1007E0000124011E017A016A0162015D0154015078
:1007F00001A1019A0191018A0183017E01D601CDF7
:1008000001C201B901B001A901353A2041637469FF
:100810006F6E7300343A204861726400333A2044AA
:100820006966666963756C7400323A204D65646967
:10083000756D00313A2045617379004865616473D4
:100840002D557020436861726164657300080B0068
:100850000202020000090400000102020000052457
:1008600000100105240101010424020605240600EC
:10087000010705810310004009040100020A00007D
:100880000007050202400000070583024000000443
:1008900003090412010002EF0201404123368000E7
:1008A000010102030141726475696E6F204C4C4373
:1008B0000041726475626F790000D00B11241FBE75
:1008C000CFEFDAE0DEBFCDBF11E0A0E0B1E0ECE1B8
:1008D000F5E202C005900D92A833B107D9F726E0E2
:1008E000A8E3B1E001C01D92AF31B207E1F714E017
:1008F000CEE5D4E004C02197FE010E948612CD35DA
:10090000D107C9F70E94ED0B0C948C120C940000D7
:1009100080E0EBECF1E081118FEF00248193819373
:10092000819381930394D1F70895EBECF1E0A0E07B
:10093000B8E000800EBC8111012C1197A0FDFDCF05
:100940000192B9F70DB40895FC018091CA01882382
:1009500011F13FB7F89482E08093E9002091F20012
:10096000822F90E01816190614F481E090E0882395
:1009700039F0289844E64093C9014091F100408342
:10098000222339F02091F200211103C02BE620939D
:10099000E8003FBF08958FEF9FEF08952FB7F894B9
:1009A00083E08093E9009091E800892F807295FFA1
:1009B00004C09091F20080E4891B2FBF08958091BC
:1009C000C10181110DC082E08093BD0184E080935C
:1009D000BE011092C0011092BF0181E08093C1015D
:1009E0008DEB91E00895CF93DF931F92CDB7DEB7E3
:1009F0006983DC01ED91FC910280F381E02D41E0FF
:100A000050E0BE016F5F7F4F09950F90DF91CF914E
:100A1000089583E08093E9008091F200882319F023
:100A20008AE38093E80008950E94CE0490E0089540
:100A3000CF93DF931F92CDB7DEB7FC0184859585F8
:100A400097FD08C02FEF3FEF358724870F90DF9188
:100A5000CF910895CE0101960E94A404019719F444
:100A6000898190E0F3CF8FEF9FEFF0CF0F931F932B
:100A7000CF93DF931F92CDB7DEB78C01FC01848545
:100A8000958597FF0BC0CE0101960E94A4040197A3
:100A900071F4898190E0F80195878487F801848555
:100AA00095850F90DF91CF911F910F9108958FEF52
:100AB0009FEFF1CFFC018485958597FD0BC09FB713
:100AC000F89482E08093E9008091F2009FBF90E06B
:100AD000019608959FB7F89482E08093E900809191
:100AE000F2009FBF90E008954091B7015091B80186
:100AF0002091B5013091B60142175307B4F490919B
:100B0000E8009570E1F39091E80092FD19C08093A0
:100B1000F1008091B7019091B80101968F739927E8
:100B2000892B19F48EEF8093E8008091B7019091A2
:100B3000B80101969093B8018093B70181E00895C0
:100B400080E00895DF92EF92FF920F931F93CF936F
:100B5000DF93D82E8A01EB017B01E40EF51ECE1542
:100B6000DF0559F0D7FE12C0FE0184910E94740582
:100B700021968111F4CF0FEF1FEFC801DF91CF91C4
:100B80001F910F91FF90EF90DF9008958881EECF35
:100B90000F931F93CF93DF931F92CDB7DEB782E001
:100BA000898342E450E06DE478E080E80E94A20589
:100BB0000E94DF04DC0112960D911C9101151105B4
:100BC00089F0D801ED91FC910280F381E02DBE0106
:100BD0006F5F7F4FC801099597FD04C0F80100853C
:100BE0001185ECCF89810F90DF91CF911F910F91EB
:100BF0000895615030F02091F100FC0120830196AE
:100C0000F8CF289884E68093C90108953FB7F894F7
:100C10008091B1019091B201A091B301B091B40162
:100C200026B5A89B05C02F3F19F00196A11DB11D47
:100C30003FBFBA2FA92F982F8827BC01CD01620F83
:100C4000711D811D911D42E0660F771F881F991F3E
:100C50004A95D1F708958F929F92AF92BF92CF920B
:100C6000DF92EF92FF926B017C010E9406064B011E
:100C70005C01C114D104E104F104B9F00E9406063C
:100C8000681979098A099B09683E734081059105B5
:100C900080F321E0C21AD108E108F10888EE880E3D
:100CA00083E0981EA11CB11CE4CFFF90EF90DF9071
:100CB000CF90BF90AF909F908F9008958F929F920A
:100CC000AF92BF92CF92DF92EF92FF920F931F935A
:100CD000CF93DF936C017B018A0180910D01882302
:100CE00009F45CC08091CA01882309F457C080913F
:100CF000BC0180FF05C08091E00082608093E0002D
:100D0000E801B12C8AEFA82E93E0892E2AE3922ED7
:100D1000209711F4BB20D9F10E94CE0481110AC0A2
:100D2000AA94AA20D9F161E070E080E090E00E94EE
:100D30002B06EECF8C171D0611F00CF08C2F9FB7F1
:100D4000F8948092E9002091E80025FD02C09FBF41
:100D5000DFCF282F30E0C21BD30BF701815020F0EA
:100D600041914093F100FACFE20EF31EBB2021F037
:100D70009092E800B12CEBCF8091E80085FDE7CFA1
:100D80009092E800BB24B394209709F3F3CF5D98C9
:100D900084E68093BB01101611063CF081E090E0E0
:100DA000F6019383828310E000E0C801DF91CF91C8
:100DB0001F910F91FF90EF90DF90CF90BF90AF9079
:100DC0009F908F900895AF92BF92CF92DF92EF9253
:100DD000FF920F931F93CF93DF936C017B018B01E5
:100DE000040F151FEB015E01AE18BF08C017D10735
:100DF00059F06991D601ED91FC910190F081E02DBF
:100E0000C6010995892B79F7C501DF91CF911F9113
:100E10000F91FF90EF90DF90CF90BF90AF9008952B
:100E20002D9A0895BC0190E080E00C942B068FB1C0
:100E30008095807F669B88601C9B8460089520E17C
:100E400091E061FD94E060FD990F62FD9295687FED
:100E5000269FD0011124A80FA553BE4F8C9140FFAF
:100E600003C0892B8C93089590958923FBCF2F92F3
:100E70003F924F925F926F927F928F929F92AF922A
:100E8000BF92CF92DF92EF92FF920F931F93CF9377
:100E9000DF9300D000D01F92CDB7DEB76D30C9F020
:100EA000409001016090A6017090A701042D10E010
:100EB0006A3049F51092A5011092A40183E0000F59
:100EC000111F8A95E1F7600E711E7092A701609262
:100ED000A60181E090E00F900F900F900F900F907F
:100EE000DF91CF911F910F91FF90EF90DF90CF9006
:100EF000BF90AF909F908F907F906F905F904F903A
:100F00003F902F9008952090A4013090A501E5E036
:100F10006E9FC001112486529E4F9D838C83610178
:100F2000512CF5E05F1651F18C819D810196EC8189
:100F3000FD81F491F9839D838C83430128E02A830A
:100F4000898181708B8376018E2D8C198415E0F454
:100F5000B12CA12CA414A0F490E8E916F10450F4EB
:100F6000B4016A0D7B1D6034710520F44B81C7010B
:100F70000E941F07EFEFAE1ABE0AECCF1982DDCF39
:100F8000FFEFEF1AFF0AE0CF2981269529838A8196
:100F900081508A83800E911E8111D2CF5394C00E4E
:100FA000D11E96E05912BDCFC101459C800D911D07
:100FB00011249093A5018093A4018BCF0F931F93CD
:100FC000CF93DF938C01D0E0C0E0F801EC0FFD1F60
:100FD0006491662341F08BE196E00E943707892BEC
:100FE00011F02196F2CFCE01DF91CF911F910F9199
:100FF00008959091A801982329F49091A90198232C
:1010000081E009F480E0089580E00C9495048091DB
:101010009A0190919B01019690939B0180939A0174
:1010200020919E0130919F01821793073CF082E04E
:1010300090E09093AB018093AA0108952FB7F894A4
:101040008091AD019091AE01A091AF01B091B0013E
:101050002FBF8093960190939701A0939801B0932E
:1010600099010895089590E080E008958F929F92ED
:10107000AF92BF920F931F93CF93DF93CDB7DEB79D
:10108000A1970FB6F894DEBF0FBECDBF19A24230B4
:1010900008F44AE08E010F5D1F4F842E912CB12C75
:1010A000A12CA50194010E942D12E62FB901CA01BD
:1010B000EA3044F5E05DD801EE938D01232B242B1B
:1010C000252B79F790E080E0109769F0FD01019001
:1010D0000020E9F73197AF014A1B5B0BBD018BE1A3
:1010E00096E00E94E306A1960FB6F894DEBF0FBE0D
:1010F000CDBFDF91CF911F910F91BF90AF909F9087
:101100008F900895E95CD7CFCF92DF92EF92FF9254
:10111000CF93DF9397FF1BC06B017C016DE28BE1E6
:1011200096E00E943707EC0166277727CB016C1900
:101130007D098E099F094AE00E9436088C0F9D1F89
:10114000DF91CF91FF90EF90DF90CF9008954AE02C
:10115000DF91CF91FF90EF90DF90CF900C94360805
:101160000C94E5111F920F920FB60F9211248F93DA
:101170009F938091E1009091E100937F9093E10033
:1011800083FF0FC01092E90091E09093EB00109262
:10119000EC0092E39093ED001092CA0198E09093D6
:1011A000F00082FF22C093E09093E9009091F2005A
:1011B000992319F09AE39093E8009091BB01992349
:1011C00041F09091BB0191509093BB01911101C0EE
:1011D0005D9A9091C901992341F09091C901915074
:1011E0009093C901911101C0289A84FF18C0809181
:1011F000E2008E7E81608093E2008091E1008F7E2C
:101200008093E1008091BC018E7E80618093BC015F
:101210009F918F910F900FBE0F901F90189580FF98
:10122000F7CF8091E2008E7E80618093E200809112
:10123000E1008E7E8093E1008091BC018E7E816012
:10124000E5CF1F920F920FB60F921124CF92DF922B
:10125000EF92FF920F931F932F933F934F935F93C0
:101260006F937F938F939F93AF93BF93EF93FF936E
:10127000CF93DF93CDB7DEB76C97DEBFCDBF1092B3
:10128000E9008091E80083FF25C068E0CE01459623
:101290000E94F90582EF8093E8008D8987FF39C0AD
:1012A0009091E80090FFFCCF982F907609F034C120
:1012B0009E894F89588D2F89F88C911131C08038C3
:1012C00061F58091BA018093F1001092F1008EEFE8
:1012D0008093E8006C960FB6F894DEBF0FBECDBFCA
:1012E000DF91CF91FF91EF91BF91AF919F918F913E
:1012F0007F916F915F914F913F912F911F910F912E
:10130000FF90EF90DF90CF900F900FBE0F901F9047
:1013100018959EEF9093E800C7CF1092F100D5CFBB
:10132000913059F48111D3CF4130510581F680912C
:10133000BA018D7F8093BA01CACF933049F48111ED
:10134000C6CF4130510519F68091BA018260F2CFC3
:10135000953041F48091E80080FFFCCF2068209315
:10136000E300B5CF963009F0A9C00B8D1C8D22E0AB
:101370001092E9001092B8011092B701F2122EC03B
:101380001092B6011092B5010E94C8051F8299E023
:101390009983FA8291E09E8390EA98879AEF9987E1
:1013A0002091B7013091B801275F3F4F3C832B83D9
:1013B0008D831092E9001092B8011092B70110933A
:1013C000B6010093B50149E050E0BE016F5F7F4F69
:1013D00080E00E94A2050E94C80579CF1093B60153
:1013E0000093B5010E94DF04DC0112960D911C915F
:1013F0000115110509F451C1D801ED91FC9104804A
:10140000F581E02DBE016B5E7F4FC8010995009705
:1014100009F03EC1F80100851185EACFF3E0FF1223
:101420000EC08F89882309F440C0823061F440E8FF
:1014300067E081EB98E00E949D0B811148CF81E22B
:101440008093EB0047CF813029F440E86BE085EAD8
:1014500098E0F1CF833099F70E94DF04DC01129607
:10146000ED90FC908E010F5F1F4F6801E114F104B5
:1014700079F0D701ED91FC910680F781E02DB8015C
:10148000C7010995080F111DF701E084F184EECF23
:10149000D8011C92F60101900020E9F73197BF01B5
:1014A0006C197D0940E0C601C6CF6FE878E0FB010A
:1014B000449150E080E80E94A20509CF973009F4DA
:1014C000BECF983021F481E08093F10000CF9930B5
:1014D00009F0FDCE837009F0B2CFE3E1F1E081E0E5
:1014E00031E096E32191222371F08093E90030935B
:1014F000EB00DF0111972C912093EC009093ED000D
:101500008F5F873079F78EE78093EA001092EA00C8
:101510008F898093CA01DBCE8B8D9C8D1092E90060
:101520001092B8011092B7019093B6018093B50163
:10153000898D811192C08E899D89913A49F48132B9
:1015400009F07DCF47E050E066E071E080E0B3CF86
:10155000913209F074CF833269F48F89988DB0E0AD
:10156000A0E08093020190930301A0930401B09343
:101570000501ADCE803269F48091E80082FFFCCF96
:1015800067E086E091E00E94F9058BEF8093E80028
:101590009ECE823209F09BCE8F8980930D01EEEFB3
:1015A000FFE7859194918B3F9C4D51F1E0E0F8E08D
:1015B0008091060190910701A0910801B091090165
:1015C000803B9440A105B105F1F480910D0180FDAF
:1015D0001AC0EE3F8AE0F80789F587E797E791831D
:1015E0008083809160008093B90188E19BE00FB611
:1015F000F894A895809360000FBE9093600067CE2A
:10160000EEEFFAE0D5CF808191818737974709F0D7
:101610005ECEA89580916000886180936000809183
:10162000B90180936000EE3F2AE0F20789F08091D3
:10163000FE0A9091FF0A9183808349CE8081918137
:101640008737980751F29093FF0A8093FE0AC5CF1F
:101650001092FF0A1092FE0A3ACE0E94DF04DC01CB
:1016600012960D911C910115110509F4E8CED801CF
:10167000ED91FC910190F081E02DBE016B5E7F4FFA
:10168000C8010995811123CEF80100851185EBCFA2
:10169000181619060CF41BCED2CEF1E0FF12BECE06
:1016A00063E978E004CF1F920F920FB60F921124D6
:1016B0002F933F938F939F93AF93BF938091AD01EF
:1016C0009091AE01A091AF01B091B0013091AC0109
:1016D00023E0230F2D3758F50196A11DB11D20934E
:1016E000AC018093AD019093AE01A093AF01B09394
:1016F000B0018091B1019091B201A091B301B0917C
:10170000B4010196A11DB11D8093B1019093B20166
:10171000A093B301B093B401BF91AF919F918F910A
:101720003F912F910F900FBE0F901F90189526E8B4
:10173000230F0296A11DB11DD2CFEF92FF920F93FE
:101740001F93CF93DF93F82E192FE62E042F81E0FD
:10175000860F880F0E94740583E00E947405CF2DC8
:10176000D12FEC0EFD2EF11CCE15DF05B9F007FFD1
:1017700013C0FE0184910E947405182F80E00E941E
:101780007405812321968111EFCFDF91CF911F91B5
:101790000F91FF90EF9008958881EDCF81E0F5CF14
:1017A000EBECF5E01382128288EE93E0A0E0B0E06B
:1017B00084839583A683B7838DE191E091838083B1
:1017C0008FEF9FEF95878487EBE1F6E0138212821B
:1017D0008FE291E0918380830895789484B582604C
:1017E00084BD84B5816084BD85B5826085BD85B5C5
:1017F000816085BD80916E00816080936E00109243
:1018000081008091810082608093810080918100BD
:10181000816080938100809180008160809380004E
:10182000809191008260809391008091910081600D
:1018300080939100809190008160809390008091CE
:10184000C10084608093C1008091C1008260809358
:10185000C1008091C10081608093C1008091C3006C
:1018600081608093C3008091C00082608093C0003B
:101870008091C20081608093C20080917A00846070
:1018800080937A0080917A00826080937A008091C0
:101890007A00816080937A0080917A0080688093DA
:1018A0007A001092CA011092BA011092BC01809184
:1018B000D70081608093D70080EA8093D80089B5F3
:1018C000806189BD89B5826089BD09B400FEFDCF04
:1018D00061E070E080E090E00E942B068091D800EB
:1018E0008F7C80618093D8008091E000807F80931E
:1018F000E0008091E1008E7E8093E1008DE0809396
:10190000E200559A209A81EC80937C0085B1806F2B
:1019100085B984B1877E84B984B1876E84B95E9AB3
:101920005F988AB1806D8AB9769A6E9881B3806F1C
:1019300081BB899880B38D7080BB80E58CBD81E0D0
:101940008DBD85E090E00E9412075F9A85E090E0EF
:101950000E9412075E985C98EAE8F7E087E997E052
:1019600024912EBD00000DB407FEFDCF31968E17D9
:101970009F07B1F75C9A81E88093640080916500CD
:101980008160809365000E9404080E94170787FF0A
:1019900015C05C9885EA8EBD00000DB407FEFDCF32
:1019A0005C9A2E982F982D98809164008062809385
:1019B000640081E083BF889513BEFCCF0E941707A7
:1019C00082FF48C02D980E94170784788438E1F47C
:1019D0000E94100788EC90E00E9412072F9882E086
:1019E00090E00E94E5118F3F29F06FEF82E090E0D8
:1019F0000E94ED1184EF91E00E9412072F9A0E943D
:101A0000170784788438D9F30E94170784718431CA
:101A1000E1F40E94100788EC90E00E9412072E98D3
:101A200082E090E00E94E511882329F060E082E0E6
:101A300090E00E94ED1184EF91E00E9412072E9A2F
:101A40000E94170784718431D9F388EC90E00E94DA
:101A50001207B4CF0E94100782E090E00E94B00805
:101A6000882309F47DC03E9A3F9A81E090E00E946D
:101A7000B008082F0470702E81FF11C001112E983C
:101A8000C1EFDFEF08E010E0BCE6EB2EF12C0E9486
:101A9000170786FF68C02E9A2F9A0E94100782E3CC
:101AA00090E00E9412070E9417078111F8CF80E191
:101AB000809300010E9488041092A7011092A60151
:101AC0001092A5011092A401809164008E7F8093F2
:101AD000640080917A00806480937A0080917A001B
:101AE00086FDFCCFC0917800D09179000E94060657
:101AF000AB01BC01CE01B0E0A0E0DC019927882752
:101B00008C019D01040F151F261F371FC901B80145
:101B100020916400216020936400611571058105A6
:101B2000910511F00E94D51154E1252E312C2FB7CB
:101B3000F8948091AD019091AE01A091AF01B09168
:101B4000B0012FBF20913A01222309F4CAC010929C
:101B50003A0180E090E0892B51F30E940000E4CF2D
:101B60003E983F9882CF772029F0C430D10511F4F8
:101B70002E9A2F9881E00E9495049E01D7FF04C001
:101B8000222733272C1B3D0B27703327CE01D7FD8F
:101B90000796A3E095958795AA95E1F7D7FF05C02D
:101BA0000197A801421B530B9A01BC017695762F31
:101BB00066277795679565537E4FB0E0A0E02801D2
:101BC000421A530A8E3F5FEF950709F43CC048E57F
:101BD00050E0FD01EE5CF84F5F014B01F0E88F0E25
:101BE000911C8F3F9807A1F0F501E41BF50BE491E0
:101BF0006701C41AD50AC60ED71EF0E01F01022ED7
:101C000001C0220C0A94EAF7F6016080262820829F
:101C100021153105A9F0F501E41BF50BE4916701ED
:101C2000C41AD50AC80CD91CF0E01F01042C02C04C
:101C3000359427940A94E2F7F601608026282082E2
:101C40004150510971F60196A85ABF4F60587F4F15
:101C5000A03BB10509F0B6CF0E9404088FE090E0E8
:101C60000E9412072196C931D10509F010CF7720C3
:101C700011F02F9A2D9880E991E00E9412070E949E
:101C8000100781E090E00E94B00880FF08CF8AE052
:101C900090E00E94B0089FEF980F9E3F08F0FFCEA3
:101CA00022E330E03093A5012093A40128E330E043
:101CB0003093A7012093A601CBE0D0E0682F8BE101
:101CC00096E00E943707CE010E94B0082196C131EC
:101CD000D105A1F70E94040888EE93E00E94120744
:101CE000DECE20913B01182F121B212F30910001D5
:101CF000131748F42F5F231708F02BCF81E083BF21
:101D0000889513BE26CFC1E0C0933A0180933B0172
:101D10008091380190913901019690933901809317
:101D200038018091A9018093A8010E941707809330
:101D3000A9010E9488041092A7011092A601109296
:101D4000A5011092A4018091AA019091AB0181306C
:101D5000910509F43BC130F0029709F452C20E9488
:101D60000408F7CEC09301013092A5012092A4018E
:101D70008BE398E00E94DE071092A5011092A40167
:101D80003092A7012092A60183E398E00E94DE072B
:101D90001092A5011092A4012EE130E03093A7012A
:101DA0002093A60189E298E00E94DE071092A50127
:101DB0001092A40148E250E05093A7014093A6017D
:101DC0008CE198E00E94DE071092A5011092A40118
:101DD00082E390E09093A7018093A60184E198E0CC
:101DE0000E94DE071092A5011092A4018CE390E0FE
:101DF0009093A7018093A60189E098E00E94DE07F6
:101E0000C091A201D091A3018AE08C9F70018D9FA7
:101E1000F00C1124570194E1A90EB11CD12CC12C56
:101E2000ACE1EA0EF11C8501B7FE02C010E000E053
:101E3000C701B1E4EB16F10414F080E490E0081758
:101E400019075CF40034110528F441E0B801C6011B
:101E50000E941F070F5F1F4FEBCFEFEFCE1ADE0A76
:101E6000F8E0CF16D104F9F680E80E94F90788233C
:101E700079F02197D7FD05C0D093A301C093A201AB
:101E80006ECF04E010E01093A3010093A20167CF8E
:101E900080E10E94F907882349F02196C530D105D9
:101EA0005CF31092A3011092A20159CF88E00E9426
:101EB000F907882309F453CFC230D10509F44EC085
:101EC000C4F5209709F447C081EF97E02197C1F14D
:101ED00010929D0110929C0110929B0110929A0108
:101EE0002FB7F8948091AD019091AE01A091AF0110
:101EF000B091B0012FBF8093960190939701A0936A
:101F00009801B093990181E090E09093AB018093A8
:101F1000AA0120919E0130919F010EE611E0F80187
:101F200090E080E082179307FCF4819391930196EF
:101F3000F9CFC330D105A9F08DEC97E0249741F695
:101F40009093A1018093A00186E090E090939F017F
:101F500080939E01BDCF8DEF97E0F2CF85EE97E0A5
:101F6000EFCF89ED97E0ECCFD0E0C0E0C0909E01CC
:101F7000D0909F01C6010197C817D9070CF0EFCE8A
:101F8000CC1ADD0A0D2C000CEE08FF08C114D10498
:101F9000E104F10439F00E948611A70196010E9424
:101FA000FB116B01FE01EC0DFD1DD8018D919D9182
:101FB0008D01EE0FFF1FE259FE4F208131811297F4
:101FC0002D933C93918380832196D0CFC0930101C0
:101FD00085EC97E00E94DE0760919C0170919D0165
:101FE000072E000C880B990B0E94840860919601C3
:101FF0007091970180919801909199014FB7F89451
:102000000091AD011091AE012091AF013091B0016E
:102010004FBF605A75418F4F9F4F601B710B820BF2
:10202000930B28EE33E040E050E00E942D12209305
:102030006A0130936B0140936C0150936D01ECE5A4
:10204000F0E0F093A501E093A4011092A701109293
:10205000A601CA01B9010E94840880919A01909159
:102060009B0120919E0130919F01821793070CF0F4
:1020700087C0880F991FFC01E259FE4F8081918132
:10208000880F991FE091A001F091A101E80FF91FBD
:10209000659174918CE391E00E94DE1110926901C8
:1020A000ECE3F1E001900020E9F78F010D531140BE
:1020B0003801C801449665E170E00E945E128B0110
:1020C0006530710514F004E010E088E0482E512CD2
:1020D000401A510A440C551C440C551CB12CA12C1F
:1020E000D0E0C0E0A016B1060CF050C04E019E0139
:1020F000245C3E4F7901F901CE01D12CC12CEC01B9
:102100008615970564F421912A3049F0019635E14E
:10211000C316D10421F04FEFC41AD40AF0CF1092A5
:10212000A5011092A4015092A7014092A601C701F7
:10213000881999098C5391408C159D0544F4D70159
:102140006D917D018BE196E00E943707F0CFFE0193
:10215000E45CFE4F80818A3009F42196FE01E45C44
:10216000FE4F8191803229F4C615D70514F42196CB
:10217000F8CFBFEFAB1ABB0AE8E04E0E511CB2CF4E
:1021800002E010E01093AB010093AA0180916A0174
:1021900090916B01A0916C01B0916D011816190618
:1021A0001A061B0674F080919C0190919D011816EF
:1021B00019062CF4019790939D0180939C010E9435
:1021C000070888E00E94F90781110FC084E00E948F
:1021D000F907882309F4C3CD80919C0190919D015A
:1021E000181619065CF4019705C080919C01909126
:1021F0009D01019690939D0180939C010E94070888
:10220000AECDC09301013092A5012092A4018BEBC9
:1022100097E00E94DE071092A5011092A40130926F
:10222000A7012092A6018DEA97E00E94DE07609147
:102230009C0170919D01072E000C880B990B0E9448
:1022400084081092A5011092A40128E230E0309396
:10225000A7012093A60187E997E00E94DE0788E0A6
:102260000E94F907882309F47ACD1092AB011092ED
:10227000AA0175CD8F929F92AF92BF92CF92DF92BB
:10228000EF92FF92CF93DF93EC01688179818A818D
:102290009B81611571058105910521F464E279ED59
:1022A0008BE597E02DE133EF41E050E00E94FB1118
:1022B00049015A019B01AC01A7EAB1E40E941A123C
:1022C0006B017C01ACEEB4EFA50194010E942812D1
:1022D000C60ED71EE81EF91EF7FE06C081E0C81A1A
:1022E000D108E10880E8F80AC882D982EA82FB8234
:1022F000C701B6019F77DF91CF91FF90EF90DF90FC
:10230000CF90BF90AF909F908F9008958F929F92A3
:10231000AF92BF92CF92DF92EF92FF9260910E0147
:1023200070910F018091100190911101611571055B
:102330008105910521F464E279ED8BE597E02DE1CB
:1023400033EF41E050E00E94FB1149015A019B012B
:10235000AC01A7EAB1E40E941A126B017C01ACEE59
:10236000B4EFA50194010E942812C60ED71EE81EE4
:10237000F91EF7FE06C081E0C81AD108E10880E81E
:10238000F80AC0920E01D0920F01E0921001F09273
:102390001101C701B6019F77FF90EF90DF90CF90BA
:1023A000BF90AF909F908F90089560930E017093AF
:1023B0000F0180931001909311010895FB01DC013E
:1023C00005900D920020E1F70895F999FECF92BD96
:1023D00081BDF89A992780B50895262FF999FECFE7
:1023E0001FBA92BD81BD20BD0FB6F894FA9AF99A32
:1023F0000FBE01960895052E97FB1EF400940E94CF
:10240000121257FD07D00E942D1207FC03D04EF484
:102410000C94121250954095309521953F4F4F4F97
:102420005F4F089590958095709561957F4F8F4F80
:102430009F4F08950E944F12A59F900DB49F900D3D
:10244000A49F800D911D11240895B7FF0C941A12BA
:102450000E941A12821B930B0895A1E21A2EAA1B46
:10246000BB1BFD010DC0AA1FBB1FEE1FFF1FA21744
:10247000B307E407F50720F0A21BB30BE40BF50B41
:10248000661F771F881F991F1A9469F760957095CA
:10249000809590959B01AC01BD01CF010895A29F4D
:1024A000B001B39FC001A39F700D811D1124911D28
:1024B000B29F700D811D1124911D089597FB072E69
:1024C00016F4009407D077FD09D00E94721207FC21
:1024D00005D03EF4909581959F4F08957095619534
:1024E0007F4F0895AA1BBB1B51E107C0AA1FBB1F4A
:1024F000A617B70710F0A61BB70B881F991F5A9590
:10250000A9F780959095BC01CD010895EE0FFF1FAE
:0C2510000590F491E02D0994F894FFCFA1
:10251C001001FFFFFFFF00E10000000000000100C0
:10252C00000000C1808100000000000000F3045E88
:10253C0006140509055A0518053605000000003774
:08254C0007E306330832080022
:00000001FF
