:100000000C9431040C9459040C9459040C94590424
:100010000C9459040C9459040C9459040C945904EC
:100020000C9459040C9459040C947D080C94EC081D
:100030000C9459040C9459040C9459040C945904CC
:100040000C9459040C9459040C9459040C945904BC
:100050000C9459040C9459040C9459040C941E0BE0
:100060000C9459040C9459040C9459040C9459049C
:100070000C9459040C9459040C9459040C9459048C
:100080000C9459040C9459040C9459040C9459047C
:100090000C9459040C9459040C9459040C9459046C
:1000A0000C9459040C9459040C94590444726177CB
:1000B000696E670044616E63696E67005377696DAE
:1000C0006D696E67004A756D70696E670052756E76
:1000D0006E696E67004E616E6F746563686E6F6CFB
:1000E0006F67790043727970746F63757272656EB1
:1000F000637900487964726F666F696C004163636D
:10010000656C65726F6D65746572005472616E73B3
:100110006973746F7200546865726D6F6D65746594
:1001200072005361786F70686F6E650048656C6926
:10013000636F707465720054656C6573636F70658E
:10014000004D6963726F73636F706500526F626F09
:1001500074005069616E6F004C6170746F70004282
:10016000696379636C650047756974617200426FF9
:100170006F6B00547265650043617200446F6700E5
:100180004361740000000000003E5B4F5B3E3E6B2D
:100190004F6B3E1C3E7C3E1C183C7E3C181C577D21
:1001A000571C1C5E7F5E1C00183C1800FFE7C3E76D
:1001B000FF0018241800FFE7DBE7FF30483A060E7F
:1001C0002629792926407F050507407F05253F5AC6
:1001D0003CE73C5A7F3E1C1C08081C1C3E7F142236
:1001E0007F22145F5F005F5F06097F017F006689E1
:1001F000956A606060606094A2FFA29408047E0427
:100200000810207E201008082A1C08081C2A08084C
:100210001E101010100C1E0C1E0C30383E3830060C
:100220000E3E0E06000000000000005F0000000708
:10023000000700147F147F14242A7F2A1223130836
:10024000646236495620500008070300001C224112
:10025000000041221C002A1C7F1C2A08083E0808B6
:100260000080703000080808080800006060002066
:10027000100804023E5149453E00427F4000724949
:100280004949462141494D331814127F10274545ED
:1002900045393C4A49493141211109073649494903
:1002A00036464949291E0000140000004034000071
:1002B00000081422411414141414004122140802DA
:1002C000015909063E415D594E7C1211127C7F494D
:1002D0004949363E414141227F4141413E7F4949A2
:1002E00049417F090909013E414151737F080808CE
:1002F0007F00417F41002040413F017F081422419F
:100300007F404040407F021C027F7F0408107F3EF8
:100310004141413E7F090909063E4151215E7F0965
:10032000192946264949493203017F01033F4040CC
:10033000403F1F2040201F3F4038403F63140814B7
:100340006303047804036159494D43007F414141EF
:100350000204081020004141417F040201020440D0
:1003600040404040000307080020545478407F2854
:100370004444383844444428384444287F3854544A
:10038000541800087E090218A4A49C787F0804046D
:100390007800447D40002040403D007F102844000C
:1003A00000417F40007C047804787C08040478389D
:1003B00044444438FC1824241818242418FC7C08CD
:1003C000040408485454542404043F44243C40404A
:1003D000207C1C2040201C3C4030403C44281028FD
:1003E000444C9090907C4464544C44000836410046
:1003F0000000770000004136080002010204023CC0
:100400002623263C1EA1A161123A4040207A38548E
:100410005455592155557941215454784121555409
:10042000784020545579400C1E527212395555555A
:1004300059395454545939555454580000457C4145
:100440000002457D420001457C40F0292429F0F05E
:10045000282528F07C545545002054547C547C0AAF
:10046000097F4932494949323248484832324A487C
:1004700048303A4141217A3A42402078009DA0A07C
:100480007D39444444393D4040403D3C24FF2424D0
:10049000487E4943662B2FFC2F2BFF0929F620C0ED
:1004A000887E090320545479410000447D4130483E
:1004B000484A32384040227A007A0A0A727D0D1981
:1004C000317D2629292F28262929292630484D40E3
:1004D00020380808080808080808382F10C8ACBADF
:1004E0002F102834FA00007B000008142A1422225E
:1004F000142A14089500220095AA005500AAAA55AE
:10050000AA55AA000000FF00101010FF00141414D8
:10051000FF001010FF00FF1010F010F0141414FC76
:10052000001414F700FF0000FF00FF1414F404FC93
:10053000141417101F10101F101F1414141F001074
:100540001010F0000000001F101010101F101010ED
:1005500010F010000000FF101010101010101010FC
:10056000FF10000000FF140000FF00FF00001F103C
:10057000170000FC04F414141710171414F404F4F6
:100580000000FF00F714141414141414F700F714E7
:100590001414171410101F101F141414F414101036
:1005A000F010F000001F101F0000001F14000000DA
:1005B000FC140000F010F01010FF10FF141414FFD2
:1005C000141010101F00000000F010FFFFFFFFFFCD
:1005D000F0F0F0F0F0FFFFFF0000000000FFFF0F61
:1005E0000F0F0F0F38444438447C2A2A3E147E02F1
:1005F000020606027E027E02635549416338444486
:100600003C04407E201E2006027E020299A5E7A53A
:10061000991C2A492A1C4C7201724C304A4D4D30AB
:100620003048784830BC625A463D3E494949007ED0
:100630000101017E2A2A2A2A2A44445F4444405167
:100640004A444040444A51400000FF0103E080FF1B
:10065000000008086B6B083612362436060F090FA7
:1006600006000018180000001010003040FF0101C3
:10067000001F01011E00191D1712003C3C3C3C00EC
:1006800000000000F0F89C8E8783878E9CF8F000B5
:1006900000FEFF0303030303070EFCF80000FEFF48
:1006A0000303030303070EFCF80000FFFF00000034
:1006B00000000000FFFF0000FEFF8383838383C7E9
:1006C000EE7C380000F8FC0E07030303070EFCF86D
:1006D00000003F7FE0C08080C0E07F3FFFFF01015E
:1006E0000101010101FFFF0000FFFF0C0C0C0C1CBD
:1006F0003E77E3C100007FFFC0C0C0C0C0E0703FD4
:100700001F00001F3F70E0C0C0C0E0703F1F00002E
:100710007FFFC1C1C1C1C1E3773E1C00001F3F7014
:10072000E0C0C0C0E0703F1F000000000001FFFFFC
:1007300001000000D5F08D14A1C881CFD9F1AF2000
:10074000005072657373204120746F20506C617982
:1007500020416761696E0046696E616C2053636F6A
:1007600072653A200047616D65204F7665720054CE
:10077000696D653A200053636F72653A2000CD00C1
:10078000C500BC00B400AC000B01FD00F300E400A8
:10079000D500410137012C012201160167015F01DB
:1007A000580152014C0180017C01780173016E01F6
:1007B000353A20416374696F6E7300343A204861A2
:1007C000726400333A20446966666963756C74002C
:1007D000323A204D656469756D00313A2045617388
:1007E000790048656164732D5570204368617261BA
:1007F00064657300080B0002020200000904000097
:100800000102020000052400100105240101010479
:100810002402060524060001070581031000400993
:10082000040100020A000000070502024000000760
:100830000583024000000403090412010002EF02D4
:1008400001404123368000010102030141726475B9
:10085000696E6F204C4C430041726475626F790081
:100860009B0B11241FBECFEFDAE0DEBFCDBF11E03E
:10087000A0E0B1E0E4E7F5E202C005900D92A833F4
:10088000B107D9F726E0A8E3B1E001C01D92AF316E
:10089000B207E1F714E0C1E3D4E004C02197FE0100
:1008A0000E94B212C033D107C9F70E94B80B0C9452
:1008B000B8120C94000080E0EBECF1E081118FEFB6
:1008C000002481938193819381930394D1F70895B8
:1008D000EBECF1E0A0E0B8E000800EBC8111012C4F
:1008E0001197A0FDFDCF0192B9F70DB40895FC0159
:1008F0008091CA01882311F13FB7F89482E0809378
:10090000E9002091F200822F90E01816190614F4E5
:1009100081E090E0882339F0289844E64093C901AB
:100920004091F1004083222339F02091F2002111FF
:1009300003C02BE62093E8003FBF08958FEF9FEFA1
:1009400008952FB7F89483E08093E9009091E80030
:10095000892F807295FF04C09091F20080E4891B7A
:100960002FBF08958091C10181110DC082E0809355
:10097000BD0184E08093BE011092C0011092BF01BE
:1009800081E08093C1018DEB91E00895CF93DF93D7
:100990001F92CDB7DEB76983DC01ED91FC91028037
:1009A000F381E02D41E050E0BE016F5F7F4F09957C
:1009B0000F90DF91CF91089583E08093E9008091BB
:1009C000F200882319F08AE38093E80008950E94DA
:1009D000A10490E00895CF93DF931F92CDB7DEB7C7
:1009E000FC018485958597FD08C02FEF3FEF358783
:1009F00024870F90DF91CF910895CE0101960E9438
:100A00007704019719F4898190E0F3CF8FEF9FEF7E
:100A1000F0CF0F931F93CF93DF931F92CDB7DEB725
:100A20008C01FC018485958597FF0BC0CE01019652
:100A30000E947704019771F4898190E0F80195870D
:100A40008487F801848595850F90DF91CF911F9160
:100A50000F9108958FEF9FEFF1CFFC01848595856D
:100A600097FD0BC09FB7F89482E08093E9008091D6
:100A7000F2009FBF90E0019608959FB7F89482E03E
:100A80008093E9008091F2009FBF90E0089540912B
:100A9000B7015091B8012091B5013091B6014217CC
:100AA0005307B4F49091E8009570E1F39091E80059
:100AB00092FD19C08093F1008091B7019091B80127
:100AC00001968F739927892B19F48EEF8093E80094
:100AD0008091B7019091B80101969093B8018093ED
:100AE000B70181E0089580E00895DF92EF92FF92D0
:100AF0000F931F93CF93DF93D82E8A01EB017B01D5
:100B0000E40EF51ECE15DF0559F0D7FE12C0FE012A
:100B100084910E94470521968111F4CF0FEF1FEFBA
:100B2000C801DF91CF911F910F91FF90EF90DF905F
:100B300008958881EECF0F931F93CF93DF931F9279
:100B4000CDB7DEB782E0898342E450E064EF77E01E
:100B500080E80E9475050E94B204DC0112960D9196
:100B60001C910115110589F0D801ED91FC910280CD
:100B7000F381E02DBE016F5F7F4FC801099597FD9E
:100B800004C0F80100851185ECCF89810F90DF91B9
:100B9000CF911F910F910895615030F02091F10095
:100BA000FC0120830196F8CF289884E68093C90140
:100BB00008953FB7F8948091B1019091B201A0914E
:100BC000B301B091B40126B5A89B05C02F3F19F021
:100BD0000196A11DB11D3FBFBA2FA92F982F8827BD
:100BE000BC01CD01620F711D811D911D42E0660F98
:100BF000771F881F991F4A95D1F708958F929F926A
:100C0000AF92BF92CF92DF92EF92FF926B017C0185
:100C10000E94D9054B015C01C114D104E104F10427
:100C2000B9F00E94D905681979098A099B09683EBB
:100C300073408105910580F321E0C21AD108E108D3
:100C4000F10888EE880E83E0981EA11CB11CE4CF49
:100C5000FF90EF90DF90CF90BF90AF909F908F90DC
:100C600008958F929F92AF92BF92CF92DF92EF92B0
:100C7000FF920F931F93CF93DF936C017B018A0147
:100C800080910D01882309F45CC08091CA018823FA
:100C900009F457C08091BC0180FF05C08091E0003D
:100CA00082608093E000E801B12C8AEFA82E93E0E7
:100CB000892E2AE3922E209711F4BB20D9F10E94AD
:100CC000A10481110AC0AA94AA20D9F161E070E0C0
:100CD00080E090E00E94FE05EECF8C171D0611F01B
:100CE0000CF08C2F9FB7F8948092E9002091E800D7
:100CF00025FD02C09FBFDFCF282F30E0C21BD30BE2
:100D0000F701815020F041914093F100FACFE20EBB
:100D1000F31EBB2021F09092E800B12CEBCF809124
:100D2000E80085FDE7CF9092E800BB24B3942097BC
:100D300009F3F3CF5D9884E68093BB01101611068A
:100D40003CF081E090E0F6019383828310E000E0C4
:100D5000C801DF91CF911F910F91FF90EF90DF902D
:100D6000CF90BF90AF909F908F9008952FB7F89439
:100D70006091AD017091AE018091AF019091B00191
:100D80002FBF0895AF92BF92CF92DF92EF92FF9262
:100D90000F931F93CF93DF936C017B018B01040FA3
:100DA000151FEB015E01AE18BF08C017D10759F03F
:100DB0006991D601ED91FC910190F081E02DC60181
:100DC0000995892B79F7C501DF91CF911F910F917B
:100DD000FF90EF90DF90CF90BF90AF9008952D9A45
:100DE0000895BC0190E080E00C94FE058FB18095E1
:100DF000807F669B88601C9B8460089520E191E061
:100E000061FD94E060FD990F62FD9295687F269FD9
:100E1000D0011124A80FA553BE4F8C9140FF03C0F1
:100E2000892B8C93089590958923FBCF2F923F9225
:100E30004F925F926F927F928F929F92AF92BF92EA
:100E4000CF92DF92EF92FF920F931F93CF93DF9396
:100E500000D000D01F92CDB7DEB76D30C9F0409002
:100E600001016090A6017090A701042D10E06A3086
:100E700049F51092A5011092A40183E0000F111F03
:100E80008A95E1F7600E711E7092A7016092A6012B
:100E900081E090E00F900F900F900F900F90DF91F6
:100EA000CF911F910F91FF90EF90DF90CF90BF9067
:100EB000AF909F908F907F906F905F904F903F90FA
:100EC0002F9008952090A4013090A501E5E06E9F39
:100ED000C00111248C579E4F9D838C836101512C3E
:100EE000F5E05F1651F18C819D810196EC81FD81C9
:100EF000F491F9839D838C83430128E02A838981BF
:100F000081708B8376018E2D8C198415E0F4B12CC1
:100F1000A12CA414A0F490E8E916F10450F4B40153
:100F20006A0D7B1D6034710520F44B81C7010E945E
:100F3000FE06EFEFAE1ABE0AECCF1982DDCFFFEF4F
:100F4000EF1AFF0AE0CF2981269529838A818150F3
:100F50008A83800E911E8111D2CF5394C00ED11E70
:100F600096E05912BDCFC101459C800D911D112401
:100F70009093A5018093A4018BCF0F931F93CF93E0
:100F8000DF938C01D0E0C0E0F801EC0FFD1F64910D
:100F9000662341F08BE196E00E941607892B11F041
:100FA0002196F2CFCE01DF91CF911F910F9108953D
:100FB0009091A801982329F49091A901982381E0A8
:100FC00009F480E0089580E00C94680480919A010F
:100FD00090919B01019690939B0180939A0120919F
:100FE0009E0130919F01821793073CF082E090E0D0
:100FF0009093AB018093AA0108950E94B606609376
:1010000096017093970180939801909399010895A8
:10101000089590E080E008958F929F92AF92BF92E2
:101020000F931F93CF93DF93CDB7DEB7A1970FB682
:10103000F894DEBF0FBECDBF19A2423008F44AE0DB
:101040008E010F5D1F4F842E912CB12CA12CA50178
:1010500094010E945912E62FB901CA01EA3044F501
:10106000E05DD801EE938D01232B242B252B79F7FE
:1010700090E080E0109769F0FD0101900020E9F711
:101080003197AF014A1B5B0BBD018BE196E00E94DB
:10109000C206A1960FB6F894DEBF0FBECDBFDF919A
:1010A000CF911F910F91BF90AF909F908F90089517
:1010B000E95CD7CFCF92DF92EF92FF92CF93DF938D
:1010C0006B017C016DE28BE196E00E941607EC015A
:1010D00066277727CB016C197D098E099F094AE0A5
:1010E0000E940C088C0F9D1FDF91CF91FF90EF9015
:1010F000DF90CF9008950C9411121F920F920FB6AB
:101100000F9211248F939F938091E1009091E100C1
:10111000937F9093E10083FF0FC01092E90091E06C
:101120009093EB001092EC0092E39093ED001092FC
:10113000CA0198E09093F00082FF22C093E0909360
:10114000E9009091F200992319F09AE39093E80056
:101150009091BB01992341F09091BB0191509093E4
:10116000BB01911101C05D9A9091C901992341F091
:101170009091C90191509093C901911101C0289A91
:1011800084FF18C08091E2008E7E81608093E2002F
:101190008091E1008F7E8093E1008091BC018E7E82
:1011A00080618093BC019F918F910F900FBE0F9033
:1011B0001F90189580FFF7CF8091E2008E7E8061AE
:1011C0008093E2008091E1008E7E8093E100809127
:1011D000BC018E7E8160E5CF1F920F920FB60F92F9
:1011E0001124CF92DF92EF92FF920F931F932F93D0
:1011F0003F934F935F936F937F938F939F93AF939F
:10120000BF93EF93FF93CF93DF93CDB7DEB76C9788
:10121000DEBFCDBF1092E9008091E80083FF25C0BA
:1012200068E0CE0145960E94CC0582EF8093E800ED
:101230008D8987FF39C09091E80090FFFCCF982FEF
:10124000907609F034C19E894F89588D2F89F88C8A
:10125000911131C0803861F58091BA018093F1001D
:101260001092F1008EEF8093E8006C960FB6F89420
:10127000DEBF0FBECDBFDF91CF91FF91EF91BF9148
:10128000AF919F918F917F916F915F914F913F911E
:101290002F911F910F91FF90EF90DF90CF900F90C3
:1012A0000FBE0F901F9018959EEF9093E800C7CF48
:1012B0001092F100D5CF913059F48111D3CF413044
:1012C000510581F68091BA018D7F8093BA01CACF12
:1012D000933049F48111C6CF4130510519F6809100
:1012E000BA018260F2CF953041F48091E80080FF2E
:1012F000FCCF20682093E300B5CF963009F0A9C059
:101300000B8D1C8D22E01092E9001092B801109212
:10131000B701F2122EC01092B6011092B5010E94D0
:101320009B051F8299E09983FA8291E09E8390EA5F
:1013300098879AEF99872091B7013091B801275F7C
:101340003F4F3C832B838D831092E9001092B801AC
:101350001092B7011093B6010093B50149E050E037
:10136000BE016F5F7F4F80E00E9475050E949B0564
:1013700079CF1093B6010093B5010E94B204DC014D
:1013800012960D911C910115110509F451C1D80156
:10139000ED91FC910480F581E02DBE016B5E7F4FE5
:1013A000C8010995009709F03EC1F8010085118533
:1013B000EACFF3E0FF120EC08F89882309F440C002
:1013C000823061F440E867E088E598E00E94680BAD
:1013D000811148CF81E28093EB0047CF813029F41F
:1013E00040E86BE08CE498E0F1CF833099F70E94FD
:1013F000B204DC011296ED90FC908E010F5F1F4F3E
:101400006801E114F10479F0D701ED91FC910680B7
:10141000F781E02DB801C7010995080F111DF701EB
:10142000E084F184EECFD8011C92F60101900020F7
:10143000E9F73197BF016C197D0940E0C601C6CFBD
:1014400066E378E0FB01449150E080E80E94750576
:1014500009CF973009F4BECF983021F481E0809312
:10146000F10000CF993009F0FDCE837009F0B2CFC2
:10147000E3E1F1E081E031E096E32191222371F094
:101480008093E9003093EB00DF0111972C912093BA
:10149000EC009093ED008F5F873079F78EE78093B3
:1014A000EA001092EA008F898093CA01DBCE8B8D0F
:1014B0009C8D1092E9001092B8011092B7019093A0
:1014C000B6018093B501898D811192C08E899D8965
:1014D000913A49F4813209F07DCF47E050E066E06F
:1014E00071E080E0B3CF913209F074CF833269F4B8
:1014F0008F89988DB0E0A0E0809302019093030162
:10150000A0930401B0930501ADCE803269F48091BF
:10151000E80082FFFCCF67E086E091E00E94CC0506
:101520008BEF8093E8009ECE823209F09BCE8F89AC
:1015300080930D01EEEFFFE7859194918B3F9C4DD9
:1015400051F1E0E0F8E08091060190910701A0914F
:101550000801B0910901803B9440A105B105F1F467
:1015600080910D0180FD1AC0EE3F8AE0F80789F5F1
:1015700087E797E791838083809160008093B9012A
:1015800088E19BE00FB6F894A895809360000FBEA9
:101590009093600067CEEEEFFAE0D5CF8081918125
:1015A0008737974709F05ECEA895809160008861E3
:1015B000809360008091B90180936000EE3F2AE043
:1015C000F20789F08091FE0A9091FF0A918380834F
:1015D00049CE808191818737980751F29093FF0A15
:1015E0008093FE0AC5CF1092FF0A1092FE0A3ACEEF
:1015F0000E94B204DC0112960D911C910115110597
:1016000009F4E8CED801ED91FC910190F081E02D34
:10161000BE016B5E7F4FC8010995811123CEF80191
:1016200000851185EBCF181619060CF41BCED2CE0F
:10163000F1E0FF12BECE6AE378E004CF1F920F9272
:101640000FB60F9211242F933F938F939F93AF93D5
:10165000BF938091AD019091AE01A091AF01B09187
:10166000B0013091AC0123E0230F2D3758F50196DE
:10167000A11DB11D2093AC018093AD019093AE01EB
:10168000A093AF01B093B0018091B1019091B201EC
:10169000A091B301B091B4010196A11DB11D809339
:1016A000B1019093B201A093B301B093B401BF9183
:1016B000AF919F918F913F912F910F900FBE0F90FF
:1016C0001F90189526E8230F0296A11DB11DD2CFB9
:1016D000EF92FF920F931F93CF93DF93F82E192F62
:1016E000E62E042F81E0860F880F0E94470583E0D5
:1016F0000E944705CF2DD12FEC0EFD2EF11CCE15EB
:10170000DF05B9F007FF13C0FE0184910E94470571
:10171000182F80E00E944705812321968111EFCF89
:10172000DF91CF911F910F91FF90EF9008958881E5
:10173000EDCF81E0F5CFEBECF5E01382128288EE7D
:1017400093E0A0E0B0E084839583A683B7838DE126
:1017500091E0918380838FEF9FEF95878487EBE102
:10176000F6E0138212828FE291E0918380830895E4
:10177000CF93DF9300D000D0CDB7DEB7789484B597
:10178000826084BD84B5816084BD85B5826085BD7D
:1017900085B5816085BD80916E00816080936E000B
:1017A00010928100809181008260809381008091FD
:1017B00081008160809381008091800081608093AE
:1017C00080008091910082608093910080919100CF
:1017D000816080939100809190008160809390005F
:1017E0008091C10084608093C1008091C1008260BB
:1017F0008093C1008091C10081608093C10080917D
:10180000C30081608093C3008091C0008260809398
:10181000C0008091C20081608093C20080917A00F4
:10182000846080937A0080917A00826080937A004D
:1018300080917A00816080937A0080917A0080683C
:1018400080937A001092CA011092BA011092BC01E2
:101850008091D70081608093D70080EA8093D80080
:1018600089B5806189BD89B5826089BD09B400FEF2
:10187000FDCF61E070E080E090E00E94FE05809185
:10188000D8008F7C80618093D8008091E000807FB9
:101890008093E0008091E1008E7E8093E1008DE0F6
:1018A0008093E200559A209A81EC80937C0085B168
:1018B000806F85B984B1877E84B984B1876E84B91D
:1018C0005E9A5F988AB1806D8AB9769A6E9881B374
:1018D000806F81BB899880B38D7080BB80E58CBDA3
:1018E00081E08DBD85E090E00E94F1065F9A85E081
:1018F00090E00E94F1065E985C98E4E3F7E081E4F2
:1019000097E024912EBD00000DB407FEFDCF319667
:101910008E179F07B1F75C9A81E8809364008091ED
:1019200065008160809365000E94E3070E94F606CF
:1019300087FF15C05C9885EA8EBD00000DB407FED8
:10194000FDCF5C9A2E982F982D988091640080622C
:101950008093640081E083BF889513BEFCCF0E9412
:10196000F60682FF48C02D980E94F60684788438D7
:10197000E1F40E94EF0688EC90E00E94F1062F98B7
:1019800082E090E00E9411128F3F29F06FEF82E019
:1019900090E00E94191284EF91E00E94F1062F9AC4
:1019A0000E94F60684788438D9F30E94F606847182
:1019B0008431E1F40E94EF0688EC90E00E94F10689
:1019C0002E9882E090E00E941112882329F060E0B6
:1019D00082E090E00E94191284EF91E00E94F106EB
:1019E0002E9A0E94F60684718431D9F388EC90E037
:1019F0000E94F106B4CF0E94EF0682E090E00E94C0
:101A00007B08882309F476C03E9A3F9A81E090E0F3
:101A10000E947B08082F0470702E81FF13C00111F3
:101A20002E98B1EF2B2E33243A9408E010E08CE688
:101A3000E82EF12C0E94F60686FF5FC02E9A2F9AA0
:101A40000E94EF0682E390E00E94F1060E94F606F3
:101A50008111F8CF80E1809300010E945B04109215
:101A6000A7011092A6011092A5011092A4018091E5
:101A700064008E7F8093640080917A0080648093FC
:101A80007A0080917A0086FDFCCF00917800109159
:101A900079000E94D905AB01BC01C801B0E0A0E00B
:101AA000DC01992788278C019D01040F151F261F33
:101AB000371FC901B80120916400216020936400A0
:101AC000611571058105910511F00E94011254E123
:101AD000852E912C0E94B60680913A01882309F444
:101AE000E0C010923A0180E090E0892B99F30E94C7
:101AF0000000EDCF3E983F9889CF772031F024E069
:101B00002216310411F42E9A2F9881E00E94680465
:101B1000910137FE04C02227332722193309277089
:101B20003327C10137FC0796A3E095958795AA95C1
:101B3000E1F737FE05C00197A801421B530B9A013C
:101B4000BC017695762F66277795679565537E4F0E
:101B5000B0E0A0E02801421A530A8E3F5FEF9507DC
:101B600009F446C048E550E0FD01E452F94F5F0139
:101B70004B01F0E88F0E911C8F3F9807C9F0F501DB
:101B8000E41BF50B64906701C41AD50AC60ED71E74
:101B9000E62DF0E0022E02C0EE0FFF1F0A94E2F7DE
:101BA000FC83EB83F6016080FB816F2AF601608283
:101BB00021153105C9F0F501E41BF50B64906701AF
:101BC000C41AD50AC80CD91CE62DF0E0042C02C0BA
:101BD000F595E7950A94E2F7FC83EB83F6016080C4
:101BE000FB816F2AF60160824150510909F0C4CF90
:101BF0000196A85ABF4F60587F4FA03BB10509F02E
:101C0000ACCF0E94E3078FE090E00E94F106FFEF67
:101C10002F1A3F0A29E12216310409F00BCF772051
:101C200011F02F9A2D9880E991E00E94F1060E9410
:101C3000EF0681E090E00E947B0880FF03CF8AE0FE
:101C400090E00E947B089FEF980F9E3F08F0FACE2D
:101C500022E330E03093A5012093A40128E330E093
:101C60003093A7012093A6010BE010E01A830983AB
:101C7000682F8BE196E00E94160789819A810E9465
:101C80007B0809811A810F5F1F4F1A830983013175
:101C9000110571F70E94E30788EE93E00E94F106B8
:101CA000D1CE80913B01162F181B812F90910001FE
:101CB000191748F48F5F891708F015CF81E083BFAB
:101CC000889513BE10CF21E020933A0160933B0129
:101CD0008091380190913901019690933901809358
:101CE00038018091A9018093A8010E94F606809393
:101CF000A9010E945B041092A7011092A601109204
:101D0000A5011092A4018091AA019091AB018130AC
:101D1000910509F449C130F0029709F497C20E9475
:101D2000E307E1CE31E0309301019092A50180926A
:101D3000A40182EE97E00E94BD071092A5011092C7
:101D4000A4019092A7018092A6018AED97E00E94DB
:101D5000BD071092A5011092A4018EE190E090932E
:101D6000A7018093A60180ED97E00E94BD07109225
:101D7000A5011092A40188E290E09093A7018093BE
:101D8000A60183EC97E00E94BD071092A501109276
:101D9000A40182E390E09093A7018093A6018BEBCE
:101DA00097E00E94BD071092A5011092A4018CE358
:101DB00090E09093A7018093A60180EB97E00E94AA
:101DC000BD070091A2011091A3011A8309838AE043
:101DD000809F7001819FF00C1124570114E1A10E26
:101DE000B11CD12CC12C2CE1E20EF11C8501B7FEF7
:101DF00002C010E000E0C70131E4E316F10414F082
:101E000080E490E0081719075CF40034110528F409
:101E100041E0B801C6010E94FE060F5F1F4FEBCFE5
:101E20004FEFC41AD40A58E0C516D104F9F680E879
:101E30000E94D807882391F009811A810150110965
:101E400017FD05C01093A3010093A20168CF24E001
:101E500030E03093A3012093A20161CF80E10E9482
:101E6000D807882361F009811A810F5F1F4F053061
:101E7000110544F31092A3011092A20150CF88E003
:101E80000E94D807882309F44ACF09811A810230B9
:101E9000110509F44AC08CF50115110509F442C079
:101EA0008CE997E00130110591F110929D0110929B
:101EB0009C0110929B0110929A010E94B6066093B9
:101EC000960170939701809398019093990181E016
:101ED00090E09093AB018093AA0120919E013091F4
:101EE0009F010EE611E0F80190E080E08217930771
:101EF00014F5819391930196F9CF09811A810330EA
:101F00001105B1F08EE797E00430110571F690935A
:101F1000A1018093A00185E090E090939F018093C0
:101F20009E01C3CF86EA97E0F2CF82E997E0EFCF38
:101F300088E897E0ECCF1A821982C0909E01D09079
:101F40009F01C601019729813A81281739070CF0B2
:101F5000E6CEC21AD30A0D2C000CEE08FF08C114FD
:101F6000D104E104F10439F00E94B211A7019601F5
:101F70000E9427126B01E981FA81EC0DFD1DD80149
:101F80008D919D918D01EE0FFF1FE259FE4F208133
:101F9000318112972D933C9391838083E981FA815B
:101FA0003196FA83E983C9CFF1E0F093010186E726
:101FB00097E00E94BD0780919C0190919D0164E68D
:101FC00070E00E948A129C01BC01990F880B990B4A
:101FD00037FFAEC00E945A080CE510E01093A5012F
:101FE0000093A4011092A7011092A601C09096013F
:101FF000D0909701E0909801F09099010E94B60668
:1020000010E6C10E1AEED11EE11CF11CA7019601CB
:10201000261B370B480B590BCA01B90128EE33E0D8
:1020200040E050E00E94591269017A01C0926A01B1
:10203000D0926B01E0926C01F0926D018FE697E017
:102040000E94BD07C701B60124E630E040E050E041
:102050000E9459124AE00E940C08E0919A01F09106
:102060009B0180919E0190919F01E817F9070CF068
:102070009BC08EE2ACE3B1E01D928A95E9F7CF01F7
:10208000880F991FE091A001F091A101E80FF91FBD
:10209000659174918CE391E00E940A12109269019B
:1020A000ECE3F1E001900020E9F78F010D531140BE
:1020B0002801C801449665E170E00E948A127B0104
:1020C000653071051CF024E0E22EF12C88E0282E0A
:1020D000312C2E183F0893E0220C331C9A95E1F71F
:1020E000712C612C10E000E06E147F040CF062C0D3
:1020F0001A830983045C1E4F6801F80109811A8163
:102100001C830B83B12CA12C0B811C81041515059C
:102110009CF481918A3081F0C801019625E1A216D4
:10212000B10451F03FEFA31AB30A9C838B83ECCF29
:102130004AE00E940C0850CF1092A5011092A40111
:102140003092A7012092A601C60149815A81841BC1
:10215000950B8C5391408A159B059CF08B819C813B
:10216000845C9E4F9A838983E981FA818191FA8305
:10217000E983803271F4041515057CF40F5F1F4F5D
:10218000F3CFD6016D916D018BE196E00E941607A9
:10219000DBCF8A3011F40F5F1F4FFFEF6F1A7F0AFA
:1021A00028E0220E311CA0CF42E050E05093AB015A
:1021B0004093AA01C0909601D0909701E0909801B9
:1021C000F09099010E94B60650E6C50E5AEED51E53
:1021D000E11CF11C97018601061B170B280B390B1C
:1021E000C901B80128EE33E040E050E00E945912E6
:1021F00020936A0130936B0140936C0150936D0101
:10220000232B242B252B11F40E94E60788E00E9443
:10221000D807882361F080919C0190919D010196DF
:1022200090939D0180939C010E94E60778CD84E005
:102230000E94D807882309F472CD80919C01909167
:102240009D011816190684F70197EACF11E0109343
:1022500001019092A5018092A40185E697E00E9479
:10226000BD071092A5011092A4019092A70180923F
:10227000A60187E597E00E94BD0760919C017091DF
:102280009D01072E000C880B990B97FF1BC00E9425
:102290005A081092A5011092A40188E290E0909350
:1022A000A7018093A60181E497E00E94BD0788E022
:1022B0000E94D807882309F432CD1092AB01109206
:1022C000AA012DCD4AE00E940C08E3CF8F929F9285
:1022D000AF92BF92CF92DF92EF92FF92CF93DF93B4
:1022E000EC01688179818A819B8161157105810585
:1022F000910521F464E279ED8BE597E02DE133EF70
:1023000041E050E00E94271249015A019B01AC01B3
:10231000A7EAB1E40E9446126B017C01ACEEB4EF77
:10232000A50194010E945412C60ED71EE81EF91E84
:10233000F7FE06C081E0C81AD108E10880E8F80A73
:10234000C882D982EA82FB82C701B6019F77DF91FA
:10235000CF91FF90EF90DF90CF90BF90AF909F9084
:102360008F9008958F929F92AF92BF92CF92DF92FB
:10237000EF92FF9260910E0170910F018091100118
:1023800090911101611571058105910521F464E2B7
:1023900079ED8BE597E02DE133EF41E050E00E94CD
:1023A000271249015A019B01AC01A7EAB1E40E943E
:1023B00046126B017C01ACEEB4EFA50194010E94C2
:1023C0005412C60ED71EE81EF91EF7FE06C081E0A5
:1023D000C81AD108E10880E8F80AC0920E01D0922C
:1023E0000F01E0921001F0921101C701B6019F7731
:1023F000FF90EF90DF90CF90BF90AF909F908F9025
:10240000089560930E0170930F01809310019093D3
:1024100011010895FB01DC0105900D920020E1F708
:102420000895F999FECF92BD81BDF89A992780B59C
:102430000895262FF999FECF1FBA92BD81BD20BD08
:102440000FB6F894FA9AF99A0FBE01960895052EE0
:1024500097FB1EF400940E943E1257FD07D00E9485
:10246000591207FC03D04EF40C943E12509540953F
:10247000309521953F4F4F4F5F4F08959095809530
:10248000709561957F4F8F4F9F4F08950E947B12EB
:10249000A59F900DB49F900DA49F800D911D1124B8
:1024A0000895B7FF0C9446120E944612821B930BAC
:1024B0000895A1E21A2EAA1BBB1BFD010DC0AA1F85
:1024C000BB1FEE1FFF1FA217B307E407F50720F09D
:1024D000A21BB30BE40BF50B661F771F881F991F18
:1024E0001A9469F760957095809590959B01AC0161
:1024F000BD01CF010895A29FB001B39FC001A39F6A
:10250000700D811D1124911DB29F700D811D11242C
:10251000911D089597FB072E16F4009407D077FDC0
:1025200009D00E949E1207FC05D03EF4909581953B
:102530009F4F0895709561957F4F0895AA1BBB1B0F
:1025400051E107C0AA1FBB1FA617B70710F0A61BB3
:10255000B70B881F991F5A95A9F780959095BC01D4
:10256000CD010895EE0FFF1F0590F491E02D099421
:04257000F894FFCF0D
:102574001001FFFFFFFF00E1000000000000010068
:10258400000000C1808100000000000000C604318A
:1025940006E704DC042D05EB040905000000001621
:0825A40007C20609080808003F
:00000001FF
